{
  "_format": "hh-sol-artifact-1",
  "contractName": "HashedTimelockEther",
  "sourceName": "contracts/HashedTimelockEther.sol",
  "abi": [
    {
      "inputs": [],
      "name": "AlreadyRedeemed",
      "type": "error"
    },
    {
      "inputs": [],
      "name": "AlreadyRefunded",
      "type": "error"
    },
    {
      "inputs": [],
      "name": "ContractAlreadyExist",
      "type": "error"
    },
    {
      "inputs": [],
      "name": "ContractNotExist",
      "type": "error"
    },
    {
      "inputs": [],
      "name": "FundsNotSent",
      "type": "error"
    },
    {
      "inputs": [],
      "name": "HashlockNotMatch",
      "type": "error"
    },
    {
      "inputs": [],
      "name": "IncorrectData",
      "type": "error"
    },
    {
      "inputs": [],
      "name": "NotFutureTimelock",
      "type": "error"
    },
    {
      "inputs": [],
      "name": "NotPassedTimelock",
      "type": "error"
    },
    {
      "inputs": [],
      "name": "NotReceiver",
      "type": "error"
    },
    {
      "inputs": [],
      "name": "NotSender",
      "type": "error"
    },
    {
      "anonymous": false,
      "inputs": [
        {
          "indexed": true,
          "internalType": "bytes32[]",
          "name": "contractId",
          "type": "bytes32[]"
        }
      ],
      "name": "HTLCEtherBatchRedeemed",
      "type": "event"
    },
    {
      "anonymous": false,
      "inputs": [
        {
          "indexed": true,
          "internalType": "bytes32",
          "name": "contractId",
          "type": "bytes32"
        },
        {
          "indexed": false,
          "internalType": "bytes32",
          "name": "hashlock",
          "type": "bytes32"
        },
        {
          "indexed": false,
          "internalType": "uint256",
          "name": "amount",
          "type": "uint256"
        },
        {
          "indexed": false,
          "internalType": "uint256",
          "name": "chainID",
          "type": "uint256"
        },
        {
          "indexed": false,
          "internalType": "uint256",
          "name": "timelock",
          "type": "uint256"
        },
        {
          "indexed": true,
          "internalType": "address",
          "name": "sender",
          "type": "address"
        },
        {
          "indexed": true,
          "internalType": "address",
          "name": "receiver",
          "type": "address"
        },
        {
          "indexed": false,
          "internalType": "string",
          "name": "_address",
          "type": "string"
        }
      ],
      "name": "HTLCEtherCreated",
      "type": "event"
    },
    {
      "anonymous": false,
      "inputs": [
        {
          "indexed": true,
          "internalType": "bytes32",
          "name": "contractId",
          "type": "bytes32"
        }
      ],
      "name": "HTLCEtherRedeemed",
      "type": "event"
    },
    {
      "anonymous": false,
      "inputs": [
        {
          "indexed": true,
          "internalType": "bytes32",
          "name": "contractId",
          "type": "bytes32"
        }
      ],
      "name": "HTLCEtherRefunded",
      "type": "event"
    },
    {
      "inputs": [
        {
          "internalType": "bytes32[]",
          "name": "_contractIds",
          "type": "bytes32[]"
        },
        {
          "internalType": "bytes32[]",
          "name": "_secrets",
          "type": "bytes32[]"
        }
      ],
      "name": "batchRedeem",
      "outputs": [
        {
          "internalType": "bool",
          "name": "",
          "type": "bool"
        }
      ],
      "stateMutability": "nonpayable",
      "type": "function"
    },
    {
      "inputs": [
        {
          "internalType": "address payable",
          "name": "_receiver",
          "type": "address"
        },
        {
          "internalType": "bytes32",
          "name": "_hashlock",
          "type": "bytes32"
        },
        {
          "internalType": "uint256",
          "name": "_timelock",
          "type": "uint256"
        },
        {
          "internalType": "uint256",
          "name": "_chainID",
          "type": "uint256"
        },
        {
          "internalType": "string",
          "name": "_address",
          "type": "string"
        }
      ],
      "name": "createHTLC",
      "outputs": [
        {
          "internalType": "bytes32",
          "name": "contractId",
          "type": "bytes32"
        }
      ],
      "stateMutability": "payable",
      "type": "function"
    },
    {
      "inputs": [
        {
          "internalType": "bytes32",
          "name": "_contractId",
          "type": "bytes32"
        }
      ],
      "name": "getHTLCDetails",
      "outputs": [
        {
          "internalType": "address",
          "name": "sender",
          "type": "address"
        },
        {
          "internalType": "address",
          "name": "receiver",
          "type": "address"
        },
        {
          "internalType": "uint256",
          "name": "amount",
          "type": "uint256"
        },
        {
          "internalType": "bytes32",
          "name": "hashlock",
          "type": "bytes32"
        },
        {
          "internalType": "uint256",
          "name": "timelock",
          "type": "uint256"
        },
        {
          "internalType": "bool",
          "name": "redeemed",
          "type": "bool"
        },
        {
          "internalType": "bool",
          "name": "refunded",
          "type": "bool"
        },
        {
          "internalType": "bytes32",
          "name": "secret",
          "type": "bytes32"
        }
      ],
      "stateMutability": "view",
      "type": "function"
    },
    {
      "inputs": [
        {
          "internalType": "bytes32",
          "name": "_contractId",
          "type": "bytes32"
        },
        {
          "internalType": "bytes32",
          "name": "_secret",
          "type": "bytes32"
        }
      ],
      "name": "redeem",
      "outputs": [
        {
          "internalType": "bool",
          "name": "",
          "type": "bool"
        }
      ],
      "stateMutability": "nonpayable",
      "type": "function"
    },
    {
      "inputs": [
        {
          "internalType": "bytes32",
          "name": "_contractId",
          "type": "bytes32"
        }
      ],
      "name": "refund",
      "outputs": [
        {
          "internalType": "bool",
          "name": "",
          "type": "bool"
        }
      ],
      "stateMutability": "nonpayable",
      "type": "function"
    }
  ],
  "bytecode": "0x608060405234801561001057600080fd5b50610f75806100206000396000f3fe60806040526004361061004a5760003560e01c80635ae314ec1461004f5780637249fbb6146100755780638928777e146100a55780638e08c0811461010f578063b31597ad1461012f575b600080fd5b61006261005d366004610c19565b61014f565b6040519081526020015b60405180910390f35b34801561008157600080fd5b50610095610090366004610cea565b6103df565b604051901515815260200161006c565b3480156100b157600080fd5b506100c56100c0366004610cea565b61054d565b604080516001600160a01b03998a1681529890971660208901529587019490945260608601929092526080850152151560a0840152151560c083015260e08201526101000161006c565b34801561011b57600080fd5b5061009561012a366004610d83565b6105eb565b34801561013b57600080fd5b5061009561014a366004610de7565b610945565b60003460000361017257604051636f8ab38d60e11b815260040160405180910390fd5b42841161019257604051633dd8280960e21b815260040160405180910390fd5b6040516bffffffffffffffffffffffff1933606090811b8216602084015288901b166034820152346048820152606881018690526088810185905260029060a80160408051601f19818403018152908290526101ed91610e2d565b602060405180830381855afa15801561020a573d6000803e3d6000fd5b5050506040513d601f19601f8201168201806040525081019061022d9190610e49565b905061023881610bb2565b156102565760405163bb0c4cf160e01b815260040160405180910390fd5b6040518061010001604052808681526020016000801b8152602001348152602001858152602001336001600160a01b03168152602001876001600160a01b03168152602001600015158152602001600015158152506000808381526020019081526020016000206000820151816000015560208201518160010155604082015181600201556060820151816003015560808201518160040160006101000a8154816001600160a01b0302191690836001600160a01b0316021790555060a08201518160050160006101000a8154816001600160a01b0302191690836001600160a01b0316021790555060c08201518160050160146101000a81548160ff02191690831515021790555060e08201518160050160156101000a81548160ff021916908315150217905550905050856001600160a01b0316336001600160a01b0316827fc0a192e219af793b8911d5cf8f98089a2546e6201daca6ae0a605c27d4e0250e8834888a896040516103ce959493929190610e62565b60405180910390a495945050505050565b6000816103eb81610bb2565b6104085760405163ada0853d60e01b815260040160405180910390fd5b600083815260208190526040902060048101546001600160a01b031633146104435760405163b2c3aa6b60e01b815260040160405180910390fd5b6005810154600160a81b900460ff16156104705760405163542f378d60e11b815260040160405180910390fd5b6005810154600160a01b900460ff161561049d576040516306d3830f60e21b815260040160405180910390fd5b42816003015411156104c25760405163b3f711f760e01b815260040160405180910390fd5b60058101805460ff60a81b1916600160a81b179055600481015460028201546040516001600160a01b039092169181156108fc0291906000818181858888f19350505050158015610517573d6000803e3d6000fd5b5060405184907fa45e0944c51c37a3fc70f1153c0374f32ed9c9d26b16b48c25271bf340efa84f90600090a25060019392505050565b60008060008060008060008061056289610bb2565b610583575060009650869550859450849350839250829150819050806105e0565b5050506000868152602081905260409020600481015460058201546002830154835460038501546001909501546001600160a01b039485169a509383169850909650945091925060ff600160a01b8304811692600160a81b900416905b919395975091939597565b6000815183511461060f57604051632da91f4160e01b815260040160405180910390fd5b60005b835181101561066c5761063d84828151811061063057610630610eb1565b6020026020010151610bb2565b61065a5760405163ada0853d60e01b815260040160405180910390fd5b8061066481610edd565b915050610612565b506000805b84518110156108cc57600080600087848151811061069157610691610eb1565b602002602001015181526020019081526020016000209050600060028684815181106106bf576106bf610eb1565b60200260200101516040516020016106d991815260200190565b60408051601f19818403018152908290526106f391610e2d565b602060405180830381855afa158015610710573d6000803e3d6000fd5b5050506040513d601f19601f820116820180604052508101906107339190610e49565b905060028160405160200161074a91815260200190565b60408051601f198184030181529082905261076491610e2d565b602060405180830381855afa158015610781573d6000803e3d6000fd5b5050506040513d601f19601f820116820180604052508101906107a49190610e49565b8254146107c45760405163e73bcb3560e01b815260040160405180910390fd5b60058201546001600160a01b031633146107f157604051635a06399f60e11b815260040160405180910390fd5b6005820154600160a81b900460ff161561081e5760405163542f378d60e11b815260040160405180910390fd5b6005820154600160a01b900460ff161561084b576040516306d3830f60e21b815260040160405180910390fd5b4282600301541161086f57604051633dd8280960e21b815260040160405180910390fd5b85838151811061088157610881610eb1565b6020908102919091010151600183015560058201805460ff60a01b1916600160a01b17905560028201546108b59085610ef6565b9350505080806108c490610edd565b915050610671565b50604051339082156108fc029083906000818181858888f193505050501580156108fa573d6000803e3d6000fd5b50836040516109099190610f09565b604051908190038120907fcafef545e79f2768dc1f93ee4ccbad744d76cf959784a6d88bb06af657f2f3cc90600090a260019150505b92915050565b60008261095181610bb2565b61096e5760405163ada0853d60e01b815260040160405180910390fd5b600084815260208181526040808320815192830187905292916002910160408051601f19818403018152908290526109a591610e2d565b602060405180830381855afa1580156109c2573d6000803e3d6000fd5b5050506040513d601f19601f820116820180604052508101906109e59190610e49565b90506002816040516020016109fc91815260200190565b60408051601f1981840301815290829052610a1691610e2d565b602060405180830381855afa158015610a33573d6000803e3d6000fd5b5050506040513d601f19601f82011682018060405250810190610a569190610e49565b825414610a765760405163e73bcb3560e01b815260040160405180910390fd5b60058201546001600160a01b03163314610aa357604051635a06399f60e11b815260040160405180910390fd5b6005820154600160a81b900460ff1615610ad05760405163542f378d60e11b815260040160405180910390fd5b6005820154600160a01b900460ff1615610afd576040516306d3830f60e21b815260040160405180910390fd5b42826003015411610b2157604051633dd8280960e21b815260040160405180910390fd5b6001820185905560058201805460ff60a01b198116600160a01b1790915560028301546040516001600160a01b039092169181156108fc0291906000818181858888f19350505050158015610b7a573d6000803e3d6000fd5b5060405186907f9c99e224f6de9465364296f787b16047e11cf4a367c73fc3e979dda64d3e668c90600090a250600195945050505050565b6000908152602081905260409020600401546001600160a01b0316151590565b634e487b7160e01b600052604160045260246000fd5b604051601f8201601f1916810167ffffffffffffffff81118282101715610c1157610c11610bd2565b604052919050565b600080600080600060a08688031215610c3157600080fd5b85356001600160a01b0381168114610c4857600080fd5b945060208681013594506040870135935060608701359250608087013567ffffffffffffffff80821115610c7b57600080fd5b818901915089601f830112610c8f57600080fd5b813581811115610ca157610ca1610bd2565b610cb3601f8201601f19168501610be8565b91508082528a84828501011115610cc957600080fd5b80848401858401376000848284010152508093505050509295509295909350565b600060208284031215610cfc57600080fd5b5035919050565b600082601f830112610d1457600080fd5b8135602067ffffffffffffffff821115610d3057610d30610bd2565b8160051b610d3f828201610be8565b9283528481018201928281019087851115610d5957600080fd5b83870192505b84831015610d7857823582529183019190830190610d5f565b979650505050505050565b60008060408385031215610d9657600080fd5b823567ffffffffffffffff80821115610dae57600080fd5b610dba86838701610d03565b93506020850135915080821115610dd057600080fd5b50610ddd85828601610d03565b9150509250929050565b60008060408385031215610dfa57600080fd5b50508035926020909101359150565b60005b83811015610e24578181015183820152602001610e0c565b50506000910152565b60008251610e3f818460208701610e09565b9190910192915050565b600060208284031215610e5b57600080fd5b5051919050565b85815284602082015283604082015282606082015260a06080820152600082518060a0840152610e998160c0850160208701610e09565b601f01601f19169190910160c0019695505050505050565b634e487b7160e01b600052603260045260246000fd5b634e487b7160e01b600052601160045260246000fd5b600060018201610eef57610eef610ec7565b5060010190565b8082018082111561093f5761093f610ec7565b815160009082906020808601845b83811015610f3357815185529382019390820190600101610f17565b5092969550505050505056fea26469706673582212204c7d192d5d3a3cf52f8a670264ee268c622e4c65d287c2ba3e0cf0f6bbbd374c64736f6c63430008140033",
  "linkReferences": {},
  "deployedLinkReferences": {}
}