{
  "_format": "hh-sol-artifact-1",
  "contractName": "HashedTimelockEther",
  "sourceName": "contracts/HashedTimeLockEther.sol",
  "abi": [
    {
      "inputs": [],
      "name": "AlreadyRedeemed",
      "type": "error"
    },
    {
      "inputs": [],
      "name": "AlreadyRefunded",
      "type": "error"
    },
    {
      "inputs": [],
      "name": "ContractAlreadyExist",
      "type": "error"
    },
    {
      "inputs": [],
      "name": "ContractNotExist",
      "type": "error"
    },
    {
      "inputs": [],
      "name": "FundsNotSent",
      "type": "error"
    },
    {
      "inputs": [],
      "name": "HashlockNotMatch",
      "type": "error"
    },
    {
      "inputs": [],
      "name": "IncorrectData",
      "type": "error"
    },
    {
      "inputs": [],
      "name": "NotFutureTimelock",
      "type": "error"
    },
    {
      "inputs": [],
      "name": "NotPassedTimelock",
      "type": "error"
    },
    {
      "anonymous": false,
      "inputs": [
        {
          "indexed": true,
          "internalType": "bytes32[]",
          "name": "contractId",
          "type": "bytes32[]"
        }
      ],
      "name": "BatchEtherTransfersCompleted",
      "type": "event"
    },
    {
      "anonymous": false,
      "inputs": [
        {
          "indexed": true,
          "internalType": "bytes32",
          "name": "contractId",
          "type": "bytes32"
        }
      ],
      "name": "EtherTransferClaimed",
      "type": "event"
    },
    {
      "anonymous": false,
      "inputs": [
        {
          "indexed": true,
          "internalType": "bytes32",
          "name": "contractId",
          "type": "bytes32"
        },
        {
          "indexed": false,
          "internalType": "bytes32",
          "name": "hashlock",
          "type": "bytes32"
        },
        {
          "indexed": false,
          "internalType": "uint256",
          "name": "amount",
          "type": "uint256"
        },
        {
          "indexed": false,
          "internalType": "uint256",
          "name": "chainID",
          "type": "uint256"
        },
        {
          "indexed": false,
          "internalType": "uint256",
          "name": "timelock",
          "type": "uint256"
        },
        {
          "indexed": true,
          "internalType": "address",
          "name": "sender",
          "type": "address"
        },
        {
          "indexed": true,
          "internalType": "address",
          "name": "receiver",
          "type": "address"
        },
        {
          "indexed": false,
          "internalType": "string",
          "name": "targetCurrencyReceiverAddress",
          "type": "string"
        }
      ],
      "name": "EtherTransferInitiated",
      "type": "event"
    },
    {
      "anonymous": false,
      "inputs": [
        {
          "indexed": true,
          "internalType": "bytes32",
          "name": "contractId",
          "type": "bytes32"
        }
      ],
      "name": "EtherTransferRefunded",
      "type": "event"
    },
    {
      "inputs": [
        {
          "internalType": "bytes32[]",
          "name": "_contractIds",
          "type": "bytes32[]"
        },
        {
          "internalType": "bytes32[]",
          "name": "_secrets",
          "type": "bytes32[]"
        }
      ],
      "name": "batchRedeem",
      "outputs": [
        {
          "internalType": "bool",
          "name": "",
          "type": "bool"
        }
      ],
      "stateMutability": "nonpayable",
      "type": "function"
    },
    {
      "inputs": [
        {
          "internalType": "address payable",
          "name": "_receiver",
          "type": "address"
        },
        {
          "internalType": "bytes32",
          "name": "_hashlock",
          "type": "bytes32"
        },
        {
          "internalType": "uint256",
          "name": "_timelock",
          "type": "uint256"
        },
        {
          "internalType": "uint256",
          "name": "_chainID",
          "type": "uint256"
        },
        {
          "internalType": "string",
          "name": "_targetCurrencyReceiverAddress",
          "type": "string"
        }
      ],
      "name": "createHTLC",
      "outputs": [
        {
          "internalType": "bytes32",
          "name": "contractId",
          "type": "bytes32"
        }
      ],
      "stateMutability": "payable",
      "type": "function"
    },
    {
      "inputs": [
        {
          "internalType": "bytes32",
          "name": "_contractId",
          "type": "bytes32"
        }
      ],
      "name": "getHTLCDetails",
      "outputs": [
        {
          "internalType": "address",
          "name": "sender",
          "type": "address"
        },
        {
          "internalType": "address",
          "name": "receiver",
          "type": "address"
        },
        {
          "internalType": "uint256",
          "name": "amount",
          "type": "uint256"
        },
        {
          "internalType": "bytes32",
          "name": "hashlock",
          "type": "bytes32"
        },
        {
          "internalType": "uint256",
          "name": "timelock",
          "type": "uint256"
        },
        {
          "internalType": "bool",
          "name": "redeemed",
          "type": "bool"
        },
        {
          "internalType": "bool",
          "name": "refunded",
          "type": "bool"
        },
        {
          "internalType": "bytes32",
          "name": "secret",
          "type": "bytes32"
        }
      ],
      "stateMutability": "view",
      "type": "function"
    },
    {
      "inputs": [
        {
          "internalType": "bytes32",
          "name": "_contractId",
          "type": "bytes32"
        },
        {
          "internalType": "bytes32",
          "name": "_secret",
          "type": "bytes32"
        }
      ],
      "name": "redeem",
      "outputs": [
        {
          "internalType": "bool",
          "name": "",
          "type": "bool"
        }
      ],
      "stateMutability": "nonpayable",
      "type": "function"
    },
    {
      "inputs": [
        {
          "internalType": "bytes32",
          "name": "_contractId",
          "type": "bytes32"
        }
      ],
      "name": "refund",
      "outputs": [
        {
          "internalType": "bool",
          "name": "",
          "type": "bool"
        }
      ],
      "stateMutability": "nonpayable",
      "type": "function"
    }
  ],
  "bytecode": "0x608060405234801561001057600080fd5b50610f9b806100206000396000f3fe60806040526004361061004a5760003560e01c80635ae314ec1461004f5780637249fbb6146100755780638928777e146100a55780638e08c0811461010f578063b31597ad1461012f575b600080fd5b61006261005d366004610c3f565b61014f565b6040519081526020015b60405180910390f35b34801561008157600080fd5b50610095610090366004610d10565b6103df565b604051901515815260200161006c565b3480156100b157600080fd5b506100c56100c0366004610d10565b610520565b604080516001600160a01b03998a1681529890971660208901529587019490945260608601929092526080850152151560a0840152151560c083015260e08201526101000161006c565b34801561011b57600080fd5b5061009561012a366004610da9565b6105be565b34801561013b57600080fd5b5061009561014a366004610e0d565b610998565b60003460000361017257604051636f8ab38d60e11b815260040160405180910390fd5b42841161019257604051633dd8280960e21b815260040160405180910390fd5b6040516bffffffffffffffffffffffff1933606090811b8216602084015288901b166034820152346048820152606881018690526088810185905260029060a80160408051601f19818403018152908290526101ed91610e53565b602060405180830381855afa15801561020a573d6000803e3d6000fd5b5050506040513d601f19601f8201168201806040525081019061022d9190610e6f565b905061023881610bd8565b156102565760405163bb0c4cf160e01b815260040160405180910390fd5b6040518061010001604052808681526020016000801b8152602001348152602001858152602001336001600160a01b03168152602001876001600160a01b03168152602001600015158152602001600015158152506000808381526020019081526020016000206000820151816000015560208201518160010155604082015181600201556060820151816003015560808201518160040160006101000a8154816001600160a01b0302191690836001600160a01b0316021790555060a08201518160050160006101000a8154816001600160a01b0302191690836001600160a01b0316021790555060c08201518160050160146101000a81548160ff02191690831515021790555060e08201518160050160156101000a81548160ff021916908315150217905550905050856001600160a01b0316336001600160a01b0316827f6bca988ac26d7b47152b8b52668c5dd82e0794e9ce13f1dd50144b5a011a17878834888a896040516103ce959493929190610e88565b60405180910390a495945050505050565b6000816103eb81610bd8565b6104085760405163ada0853d60e01b815260040160405180910390fd5b60008381526020819052604090206005810154600160a81b900460ff16156104435760405163542f378d60e11b815260040160405180910390fd5b6005810154600160a01b900460ff1615610470576040516306d3830f60e21b815260040160405180910390fd5b42816003015411156104955760405163b3f711f760e01b815260040160405180910390fd5b60058101805460ff60a81b1916600160a81b179055600481015460028201546040516001600160a01b039092169181156108fc0291906000818181858888f193505050501580156104ea573d6000803e3d6000fd5b5060405184907f59c4a1ff9a5ac3d1d4ebfd7b16c6c448b0c79592702c634fb78e66db4f6c7d9c90600090a25060019392505050565b60008060008060008060008061053589610bd8565b610556575060009650869550859450849350839250829150819050806105b3565b5050506000868152602081905260409020600481015460058201546002830154835460038501546001909501546001600160a01b039485169a509383169850909650945091925060ff600160a01b8304811692600160a81b900416905b919395975091939597565b600081518351146105e257604051632da91f4160e01b815260040160405180910390fd5b60005b835181101561063f5761061084828151811061060357610603610ed7565b6020026020010151610bd8565b61062d5760405163ada0853d60e01b815260040160405180910390fd5b8061063781610f03565b9150506105e5565b506000806000808660008151811061065957610659610ed7565b6020026020010151815260200190815260200160002060050160009054906101000a90046001600160a01b0316905060005b85518110156109155760008060008884815181106106ab576106ab610ed7565b602002602001015181526020019081526020016000209050600060028784815181106106d9576106d9610ed7565b60200260200101516040516020016106f391815260200190565b60408051601f198184030181529082905261070d91610e53565b602060405180830381855afa15801561072a573d6000803e3d6000fd5b5050506040513d601f19601f8201168201806040525081019061074d9190610e6f565b905060028160405160200161076491815260200190565b60408051601f198184030181529082905261077e91610e53565b602060405180830381855afa15801561079b573d6000803e3d6000fd5b5050506040513d601f19601f820116820180604052508101906107be9190610e6f565b8254146107de5760405163e73bcb3560e01b815260040160405180910390fd5b6005820154600160a81b900460ff161561080b5760405163542f378d60e11b815260040160405180910390fd5b6005820154600160a01b900460ff1615610838576040516306d3830f60e21b815260040160405180910390fd5b4282600301541161085c57604051633dd8280960e21b815260040160405180910390fd5b86838151811061086e5761086e610ed7565b6020908102919091010151600183015560058201805460ff60a01b198116600160a01b179091556001600160a01b03908116908516036108be5760028201546108b79086610f1c565b9450610900565b600582015460028301546040516001600160a01b039092169181156108fc0291906000818181858888f193505050501580156108fe573d6000803e3d6000fd5b505b5050808061090d90610f03565b91505061068b565b506040516001600160a01b0382169083156108fc029084906000818181858888f1935050505015801561094c573d6000803e3d6000fd5b508460405161095b9190610f2f565b604051908190038120907f7a6ee4f336f9633f8323a0942578873025d6d58cf412efed20ec34e15cba3a8890600090a26001925050505b92915050565b6000826109a481610bd8565b6109c15760405163ada0853d60e01b815260040160405180910390fd5b600084815260208181526040808320815192830187905292916002910160408051601f19818403018152908290526109f891610e53565b602060405180830381855afa158015610a15573d6000803e3d6000fd5b5050506040513d601f19601f82011682018060405250810190610a389190610e6f565b9050600281604051602001610a4f91815260200190565b60408051601f1981840301815290829052610a6991610e53565b602060405180830381855afa158015610a86573d6000803e3d6000fd5b5050506040513d601f19601f82011682018060405250810190610aa99190610e6f565b825414610ac95760405163e73bcb3560e01b815260040160405180910390fd5b6005820154600160a81b900460ff1615610af65760405163542f378d60e11b815260040160405180910390fd5b6005820154600160a01b900460ff1615610b23576040516306d3830f60e21b815260040160405180910390fd5b42826003015411610b4757604051633dd8280960e21b815260040160405180910390fd5b6001820185905560058201805460ff60a01b198116600160a01b1790915560028301546040516001600160a01b039092169181156108fc0291906000818181858888f19350505050158015610ba0573d6000803e3d6000fd5b5060405186907f99d2972dc64b7c20456825284e4d602e543295d84767b45fbbaa288b42d6a3eb90600090a250600195945050505050565b6000908152602081905260409020600401546001600160a01b0316151590565b634e487b7160e01b600052604160045260246000fd5b604051601f8201601f1916810167ffffffffffffffff81118282101715610c3757610c37610bf8565b604052919050565b600080600080600060a08688031215610c5757600080fd5b85356001600160a01b0381168114610c6e57600080fd5b945060208681013594506040870135935060608701359250608087013567ffffffffffffffff80821115610ca157600080fd5b818901915089601f830112610cb557600080fd5b813581811115610cc757610cc7610bf8565b610cd9601f8201601f19168501610c0e565b91508082528a84828501011115610cef57600080fd5b80848401858401376000848284010152508093505050509295509295909350565b600060208284031215610d2257600080fd5b5035919050565b600082601f830112610d3a57600080fd5b8135602067ffffffffffffffff821115610d5657610d56610bf8565b8160051b610d65828201610c0e565b9283528481018201928281019087851115610d7f57600080fd5b83870192505b84831015610d9e57823582529183019190830190610d85565b979650505050505050565b60008060408385031215610dbc57600080fd5b823567ffffffffffffffff80821115610dd457600080fd5b610de086838701610d29565b93506020850135915080821115610df657600080fd5b50610e0385828601610d29565b9150509250929050565b60008060408385031215610e2057600080fd5b50508035926020909101359150565b60005b83811015610e4a578181015183820152602001610e32565b50506000910152565b60008251610e65818460208701610e2f565b9190910192915050565b600060208284031215610e8157600080fd5b5051919050565b85815284602082015283604082015282606082015260a06080820152600082518060a0840152610ebf8160c0850160208701610e2f565b601f01601f19169190910160c0019695505050505050565b634e487b7160e01b600052603260045260246000fd5b634e487b7160e01b600052601160045260246000fd5b600060018201610f1557610f15610eed565b5060010190565b8082018082111561099257610992610eed565b815160009082906020808601845b83811015610f5957815185529382019390820190600101610f3d565b5092969550505050505056fea2646970667358221220d67524ce9acd7522cebb93baa52ea975285d8643a7d82accc2cab53361b4cfe064736f6c63430008140033",
  "linkReferences": {},
  "deployedLinkReferences": {}
}