{
  "_format": "hh-sol-artifact-1",
  "contractName": "HashedTimelockERC20",
  "sourceName": "contracts/HashedTimeLockERC20.sol",
  "abi": [
    {
      "inputs": [
        {
          "internalType": "address",
          "name": "target",
          "type": "address"
        }
      ],
      "name": "AddressEmptyCode",
      "type": "error"
    },
    {
      "inputs": [
        {
          "internalType": "address",
          "name": "account",
          "type": "address"
        }
      ],
      "name": "AddressInsufficientBalance",
      "type": "error"
    },
    {
      "inputs": [],
      "name": "AlreadyRedeemed",
      "type": "error"
    },
    {
      "inputs": [],
      "name": "AlreadyRefunded",
      "type": "error"
    },
    {
      "inputs": [],
      "name": "ContractAlreadyExist",
      "type": "error"
    },
    {
      "inputs": [],
      "name": "ContractNotExist",
      "type": "error"
    },
    {
      "inputs": [],
      "name": "FailedInnerCall",
      "type": "error"
    },
    {
      "inputs": [],
      "name": "FundsNotSent",
      "type": "error"
    },
    {
      "inputs": [],
      "name": "HashlockNotMatch",
      "type": "error"
    },
    {
      "inputs": [],
      "name": "IncorrectData",
      "type": "error"
    },
    {
      "inputs": [],
      "name": "NotFutureTimelock",
      "type": "error"
    },
    {
      "inputs": [],
      "name": "NotPassedTimelock",
      "type": "error"
    },
    {
      "inputs": [
        {
          "internalType": "address",
          "name": "token",
          "type": "address"
        }
      ],
      "name": "SafeERC20FailedOperation",
      "type": "error"
    },
    {
      "anonymous": false,
      "inputs": [
        {
          "indexed": true,
          "internalType": "bytes32[]",
          "name": "contractIds",
          "type": "bytes32[]"
        }
      ],
      "name": "BatchTokenTransfersCompleted",
      "type": "event"
    },
    {
      "anonymous": false,
      "inputs": [
        {
          "indexed": true,
          "internalType": "bytes32",
          "name": "contractId",
          "type": "bytes32"
        }
      ],
      "name": "TokenTransferClaimed",
      "type": "event"
    },
    {
      "anonymous": false,
      "inputs": [
        {
          "indexed": true,
          "internalType": "bytes32",
          "name": "contractId",
          "type": "bytes32"
        },
        {
          "indexed": false,
          "internalType": "bytes32",
          "name": "hashlock",
          "type": "bytes32"
        },
        {
          "indexed": false,
          "internalType": "uint256",
          "name": "amount",
          "type": "uint256"
        },
        {
          "indexed": false,
          "internalType": "uint256",
          "name": "chainId",
          "type": "uint256"
        },
        {
          "indexed": false,
          "internalType": "uint256",
          "name": "timelock",
          "type": "uint256"
        },
        {
          "indexed": true,
          "internalType": "address",
          "name": "sender",
          "type": "address"
        },
        {
          "indexed": true,
          "internalType": "address",
          "name": "receiver",
          "type": "address"
        },
        {
          "indexed": false,
          "internalType": "address",
          "name": "tokenContract",
          "type": "address"
        },
        {
          "indexed": false,
          "internalType": "string",
          "name": "targetCurrencyReceiverAddress",
          "type": "string"
        }
      ],
      "name": "TokenTransferInitiated",
      "type": "event"
    },
    {
      "anonymous": false,
      "inputs": [
        {
          "indexed": true,
          "internalType": "bytes32",
          "name": "contractId",
          "type": "bytes32"
        }
      ],
      "name": "TokenTransferRefunded",
      "type": "event"
    },
    {
      "inputs": [
        {
          "internalType": "bytes32[]",
          "name": "_contractIds",
          "type": "bytes32[]"
        },
        {
          "internalType": "bytes32[]",
          "name": "_secrets",
          "type": "bytes32[]"
        }
      ],
      "name": "batchRedeem",
      "outputs": [
        {
          "internalType": "bool",
          "name": "",
          "type": "bool"
        }
      ],
      "stateMutability": "nonpayable",
      "type": "function"
    },
    {
      "inputs": [
        {
          "internalType": "address",
          "name": "_receiver",
          "type": "address"
        },
        {
          "internalType": "bytes32",
          "name": "_hashlock",
          "type": "bytes32"
        },
        {
          "internalType": "uint256",
          "name": "_timelock",
          "type": "uint256"
        },
        {
          "internalType": "address",
          "name": "_tokenContract",
          "type": "address"
        },
        {
          "internalType": "uint256",
          "name": "_amount",
          "type": "uint256"
        },
        {
          "internalType": "uint256",
          "name": "_chainID",
          "type": "uint256"
        },
        {
          "internalType": "string",
          "name": "_targetCurrencyReceiverAddress",
          "type": "string"
        }
      ],
      "name": "createHTLC",
      "outputs": [
        {
          "internalType": "bytes32",
          "name": "contractId",
          "type": "bytes32"
        }
      ],
      "stateMutability": "nonpayable",
      "type": "function"
    },
    {
      "inputs": [
        {
          "internalType": "bytes32",
          "name": "_contractId",
          "type": "bytes32"
        }
      ],
      "name": "getHTLCDetails",
      "outputs": [
        {
          "internalType": "address",
          "name": "sender",
          "type": "address"
        },
        {
          "internalType": "address",
          "name": "receiver",
          "type": "address"
        },
        {
          "internalType": "address",
          "name": "tokenContract",
          "type": "address"
        },
        {
          "internalType": "uint256",
          "name": "amount",
          "type": "uint256"
        },
        {
          "internalType": "bytes32",
          "name": "hashlock",
          "type": "bytes32"
        },
        {
          "internalType": "uint256",
          "name": "timelock",
          "type": "uint256"
        },
        {
          "internalType": "bool",
          "name": "redeemed",
          "type": "bool"
        },
        {
          "internalType": "bool",
          "name": "refunded",
          "type": "bool"
        },
        {
          "internalType": "bytes32",
          "name": "secret",
          "type": "bytes32"
        }
      ],
      "stateMutability": "view",
      "type": "function"
    },
    {
      "inputs": [
        {
          "internalType": "bytes32",
          "name": "_contractId",
          "type": "bytes32"
        },
        {
          "internalType": "bytes32",
          "name": "_secret",
          "type": "bytes32"
        }
      ],
      "name": "redeem",
      "outputs": [
        {
          "internalType": "bool",
          "name": "",
          "type": "bool"
        }
      ],
      "stateMutability": "nonpayable",
      "type": "function"
    },
    {
      "inputs": [
        {
          "internalType": "bytes32",
          "name": "_contractId",
          "type": "bytes32"
        }
      ],
      "name": "refund",
      "outputs": [
        {
          "internalType": "bool",
          "name": "",
          "type": "bool"
        }
      ],
      "stateMutability": "nonpayable",
      "type": "function"
    }
  ],
  "bytecode": "0x608060405234801561001057600080fd5b50611175806100206000396000f3fe608060405234801561001057600080fd5b50600436106100575760003560e01c80637249fbb61461005c5780638928777e146100845780638e08c081146100f0578063b31597ad14610103578063c7eb321914610116575b600080fd5b61006f61006a366004610d94565b610137565b60405190151581526020015b60405180910390f35b610097610092366004610d94565b61025a565b604080516001600160a01b039a8b168152988a1660208a015296909816958701959095526060860193909352608085019190915260a0840152151560c0830152151560e08201526101008101919091526101200161007b565b61006f6100fe366004610e74565b61030f565b61006f610111366004610ed8565b61061c565b610129610124366004610f16565b610841565b60405190815260200161007b565b60008161014381610b32565b6101605760405163ada0853d60e01b815260040160405180910390fd5b60008381526020819052604090206006810154600160a81b900460ff161561019b5760405163542f378d60e11b815260040160405180910390fd5b6006810154600160a01b900460ff16156101c8576040516306d3830f60e21b815260040160405180910390fd5b42816003015411156101ed5760405163b3f711f760e01b815260040160405180910390fd5b60068101805460ff60a81b198116600160a81b1790915560048201546002830154610225926001600160a01b03908116921690610b52565b60405184907f462b7e15007c16d0c62c5b19dcdd5eff4c93d1d5a20e7f22a7534119747e3a2c90600090a25060019392505050565b60008060008060008060008060006102718a610b32565b151560000361029a57506000975087965086955085945084935083925082915081905080610302565b50505060008781526020819052604090206004810154600582015460068301546002840154845460038601546001909601546001600160a01b039586169c509385169a509382169850965091945091925060ff600160a01b8204811692600160a81b90920416905b9193959799909294969850565b6000815183511461033357604051632da91f4160e01b815260040160405180910390fd5b60005b83518110156103905761036184828151811061035457610354610ff3565b6020026020010151610b32565b61037e5760405163ada0853d60e01b815260040160405180910390fd5b8061038881611009565b915050610336565b5060005b83518110156105d45760008060008684815181106103b4576103b4610ff3565b602002602001015181526020019081526020016000209050600060028584815181106103e2576103e2610ff3565b60200260200101516040516020016103fc91815260200190565b60408051601f198184030181529082905261041691611054565b602060405180830381855afa158015610433573d6000803e3d6000fd5b5050506040513d601f19601f820116820180604052508101906104569190611070565b905060028160405160200161046d91815260200190565b60408051601f198184030181529082905261048791611054565b602060405180830381855afa1580156104a4573d6000803e3d6000fd5b5050506040513d601f19601f820116820180604052508101906104c79190611070565b8254146104e75760405163e73bcb3560e01b815260040160405180910390fd5b6006820154600160a01b900460ff1615610514576040516306d3830f60e21b815260040160405180910390fd5b6006820154600160a81b900460ff16156105415760405163542f378d60e11b815260040160405180910390fd5b4282600301541161056557604051633dd8280960e21b815260040160405180910390fd5b84838151811061057757610577610ff3565b6020908102919091010151600183015560068201805460ff60a01b198116600160a01b17909155600583015460028401546105bf926001600160a01b03908116921690610b52565b505080806105cc90611009565b915050610394565b50826040516105e39190611089565b604051908190038120907f38869d43e253ac52a1e592d0c765e1a0784bdad5802c2969848c61c0d9c7e25990600090a250600192915050565b60008261062881610b32565b6106455760405163ada0853d60e01b815260040160405180910390fd5b600084815260208181526040808320815192830187905292916002910160408051601f198184030181529082905261067c91611054565b602060405180830381855afa158015610699573d6000803e3d6000fd5b5050506040513d601f19601f820116820180604052508101906106bc9190611070565b90506002816040516020016106d391815260200190565b60408051601f19818403018152908290526106ed91611054565b602060405180830381855afa15801561070a573d6000803e3d6000fd5b5050506040513d601f19601f8201168201806040525081019061072d9190611070565b82541461074d5760405163e73bcb3560e01b815260040160405180910390fd5b6006820154600160a01b900460ff161561077a576040516306d3830f60e21b815260040160405180910390fd5b6006820154600160a81b900460ff16156107a75760405163542f378d60e11b815260040160405180910390fd5b428260030154116107cb57604051633dd8280960e21b815260040160405180910390fd5b6001820185905560068201805460ff60a01b198116600160a01b179091556005830154600284015461080a926001600160a01b03908116921690610b52565b60405186907f969820c42710116cf5527d5df03fd8802d2437e2776b8cb20fde3cd981223c7290600090a250600195945050505050565b600042861161086357604051633dd8280960e21b815260040160405180910390fd5b8360000361088457604051636f8ab38d60e11b815260040160405180910390fd5b6040516bffffffffffffffffffffffff1933606090811b821660208401528a811b8216603484015287901b166048820152605c8101859052607c8101889052609c810187905260029060bc0160408051601f19818403018152908290526108ea91611054565b602060405180830381855afa158015610907573d6000803e3d6000fd5b5050506040513d601f19601f8201168201806040525081019061092a9190611070565b905061093581610b32565b156109535760405163bb0c4cf160e01b815260040160405180910390fd5b6109686001600160a01b038616333087610bb6565b6040518061012001604052808881526020016000801b8152602001858152602001878152602001336001600160a01b03168152602001896001600160a01b03168152602001866001600160a01b03168152602001600015158152602001600015158152506000808381526020019081526020016000206000820151816000015560208201518160010155604082015181600201556060820151816003015560808201518160040160006101000a8154816001600160a01b0302191690836001600160a01b0316021790555060a08201518160050160006101000a8154816001600160a01b0302191690836001600160a01b0316021790555060c08201518160060160006101000a8154816001600160a01b0302191690836001600160a01b0316021790555060e08201518160060160146101000a81548160ff0219169083151502179055506101008201518160060160156101000a81548160ff021916908315150217905550905050876001600160a01b0316336001600160a01b0316827fb0195c6d6c73fd5202e20ced0a1ebcce8d57ff3733eeb6442fd41094ddfa1e028a88888c8c8a604051610b1f969594939291906110bf565b60405180910390a4979650505050505050565b6000908152602081905260409020600401546001600160a01b0316151590565b6040516001600160a01b03838116602483015260448201839052610bb191859182169063a9059cbb906064015b604051602081830303815290604052915060e01b6020820180516001600160e01b038381831617835250505050610bf5565b505050565b6040516001600160a01b038481166024830152838116604483015260648201839052610bef9186918216906323b872dd90608401610b7f565b50505050565b6000610c0a6001600160a01b03841683610c5d565b90508051600014158015610c2f575080806020019051810190610c2d919061111d565b155b15610bb157604051635274afe760e01b81526001600160a01b03841660048201526024015b60405180910390fd5b6060610c6b83836000610c72565b9392505050565b606081471015610c975760405163cd78605960e01b8152306004820152602401610c54565b600080856001600160a01b03168486604051610cb39190611054565b60006040518083038185875af1925050503d8060008114610cf0576040519150601f19603f3d011682016040523d82523d6000602084013e610cf5565b606091505b5091509150610d05868383610d0f565b9695505050505050565b606082610d2457610d1f82610d6b565b610c6b565b8151158015610d3b57506001600160a01b0384163b155b15610d6457604051639996b31560e01b81526001600160a01b0385166004820152602401610c54565b5080610c6b565b805115610d7b5780518082602001fd5b604051630a12f52160e11b815260040160405180910390fd5b600060208284031215610da657600080fd5b5035919050565b634e487b7160e01b600052604160045260246000fd5b604051601f8201601f1916810167ffffffffffffffff81118282101715610dec57610dec610dad565b604052919050565b600082601f830112610e0557600080fd5b8135602067ffffffffffffffff821115610e2157610e21610dad565b8160051b610e30828201610dc3565b9283528481018201928281019087851115610e4a57600080fd5b83870192505b84831015610e6957823582529183019190830190610e50565b979650505050505050565b60008060408385031215610e8757600080fd5b823567ffffffffffffffff80821115610e9f57600080fd5b610eab86838701610df4565b93506020850135915080821115610ec157600080fd5b50610ece85828601610df4565b9150509250929050565b60008060408385031215610eeb57600080fd5b50508035926020909101359150565b80356001600160a01b0381168114610f1157600080fd5b919050565b600080600080600080600060e0888a031215610f3157600080fd5b610f3a88610efa565b9650602080890135965060408901359550610f5760608a01610efa565b94506080890135935060a0890135925060c089013567ffffffffffffffff80821115610f8257600080fd5b818b0191508b601f830112610f9657600080fd5b813581811115610fa857610fa8610dad565b610fba601f8201601f19168501610dc3565b91508082528c84828501011115610fd057600080fd5b808484018584013760008482840101525080935050505092959891949750929550565b634e487b7160e01b600052603260045260246000fd5b60006001820161102957634e487b7160e01b600052601160045260246000fd5b5060010190565b60005b8381101561104b578181015183820152602001611033565b50506000910152565b60008251611066818460208701611030565b9190910192915050565b60006020828403121561108257600080fd5b5051919050565b815160009082906020808601845b838110156110b357815185529382019390820190600101611097565b50929695505050505050565b86815285602082015284604082015283606082015260018060a01b038316608082015260c060a0820152600082518060c08401526111048160e0850160208701611030565b601f01601f19169190910160e001979650505050505050565b60006020828403121561112f57600080fd5b81518015158114610c6b57600080fdfea26469706673582212204f62a6867e057bc97242d26555f6ddd30a99876de4f765b6a77b7e35842314eb64736f6c63430008140033",
  "linkReferences": {},
  "deployedLinkReferences": {}
}