{
    "contractName": "SimpleMessenger",
    "abi": [
        {
            "anonymous": false,
            "inputs": [
                {
                    "indexed": true,
                    "internalType": "bytes32",
                    "name": "Id",
                    "type": "bytes32"
                },
                {
                    "indexed": false,
                    "internalType": "bytes32",
                    "name": "srcId",
                    "type": "bytes32"
                },
                {
                    "indexed": false,
                    "internalType": "bytes32",
                    "name": "hashlock",
                    "type": "bytes32"
                },
                {
                    "indexed": false,
                    "internalType": "string",
                    "name": "dstChain",
                    "type": "string"
                },
                {
                    "indexed": false,
                    "internalType": "string",
                    "name": "dstAsset",
                    "type": "string"
                },
                {
                    "indexed": false,
                    "internalType": "string",
                    "name": "dstAddress",
                    "type": "string"
                },
                {
                    "indexed": false,
                    "internalType": "string",
                    "name": "srcAsset",
                    "type": "string"
                },
                {
                    "indexed": false,
                    "internalType": "address payable",
                    "name": "sender",
                    "type": "address"
                },
                {
                    "indexed": false,
                    "internalType": "address payable",
                    "name": "srcReciever",
                    "type": "address"
                },
                {
                    "indexed": false,
                    "internalType": "uint256",
                    "name": "amount",
                    "type": "uint256"
                },
                {
                    "indexed": false,
                    "internalType": "uint256",
                    "name": "timelock",
                    "type": "uint256"
                },
                {
                    "indexed": false,
                    "internalType": "address",
                    "name": "tokenContract",
                    "type": "address"
                }
            ],
            "name": "NotificationReceived",
            "type": "event"
        },
        {
            "inputs": [
                {
                    "internalType": "bytes32",
                    "name": "srcId",
                    "type": "bytes32"
                },
                {
                    "internalType": "bytes32",
                    "name": "hashlock",
                    "type": "bytes32"
                },
                {
                    "internalType": "string",
                    "name": "dstChain",
                    "type": "string"
                },
                {
                    "internalType": "string",
                    "name": "dstAsset",
                    "type": "string"
                },
                {
                    "internalType": "string",
                    "name": "dstAddress",
                    "type": "string"
                },
                {
                    "internalType": "string",
                    "name": "srcAsset",
                    "type": "string"
                },
                {
                    "internalType": "address payable",
                    "name": "sender",
                    "type": "address"
                },
                {
                    "internalType": "address payable",
                    "name": "srcReciever",
                    "type": "address"
                },
                {
                    "internalType": "uint256",
                    "name": "amount",
                    "type": "uint256"
                },
                {
                    "internalType": "uint256",
                    "name": "timelock",
                    "type": "uint256"
                },
                {
                    "internalType": "address",
                    "name": "tokenContract",
                    "type": "address"
                }
            ],
            "name": "notify",
            "outputs": [],
            "stateMutability": "nonpayable",
            "type": "function"
        }
    ],
    "bytecode": "608060405234801561000f575f80fd5b5061036d8061001d5f395ff3fe608060405234801561000f575f80fd5b5060043610610029575f3560e01c80635e863a5b1461002d575b5f80fd5b61004061003b366004610153565b610042565b005b897f1ee1ba31e7b837d3432b013d5cc91a31f1e90fde7c19827ad4da78934e3af7598c8c8c8c8c8c8c8c8c8c8c6040516100869b9a99989796959493929190610299565b60405180910390a25050505050505050505050565b634e487b7160e01b5f52604160045260245ffd5b5f82601f8301126100be575f80fd5b813567ffffffffffffffff808211156100d9576100d961009b565b604051601f8301601f19908116603f011681019082821181831017156101015761010161009b565b81604052838152866020858801011115610119575f80fd5b836020870160208301375f602085830101528094505050505092915050565b80356001600160a01b038116811461014e575f80fd5b919050565b5f805f805f805f805f805f6101608c8e03121561016e575f80fd5b8b359a5060208c0135995067ffffffffffffffff8060408e01351115610192575f80fd5b6101a28e60408f01358f016100af565b99508060608e013511156101b4575f80fd5b6101c48e60608f01358f016100af565b98508060808e013511156101d6575f80fd5b6101e68e60808f01358f016100af565b97508060a08e013511156101f8575f80fd5b506102098d60a08e01358e016100af565b955061021760c08d01610138565b945061022560e08d01610138565b93506101008c013592506101208c013591506102446101408d01610138565b90509295989b509295989b9093969950565b5f81518084525f5b8181101561027a5760208185018101518683018201520161025e565b505f602082860101526020601f19601f83011685010191505092915050565b5f6101608d83528c60208401528060408401526102b88184018d610256565b905082810360608401526102cc818c610256565b905082810360808401526102e0818b610256565b905082810360a08401526102f4818a610256565b6001600160a01b0398891660c085015296881660e0840152505061010081019390935261012083019190915290921661014090920191909152969550505050505056fea2646970667358221220f8893c7721f538ed28c4bfd14d85123af616846b18238c4dd9d3086827ca8d2964736f6c63430008170033",
    "sourcePath": "c:/Users/nerse/Desktop/layerswap-atomic-bridge/packages/evm/solidity/contracts/MessengerContract.sol",
    "compiler": {
        "name": "solc",
        "version": "0.8.23+commit.f704f362"
    },
    "functionHashes": {
        "notify(bytes32,bytes32,string,string,string,string,address,address,uint256,uint256,address)": "5e863a5b"
    },
    "gasEstimates": {
        "creation": {
            "codeDepositCost": "175400",
            "executionCost": "218",
            "totalCost": "175618"
        },
        "external": {
            "notify(bytes32,bytes32,string,string,string,string,address,address,uint256,uint256,address)": "infinite"
        }
    }
}