{
  "_format": "hh-sol-artifact-1",
  "contractName": "HashedTimelockERC20",
  "sourceName": "contracts/HashedTimelockERC20.sol",
  "abi": [
    {
      "inputs": [
        {
          "internalType": "address",
          "name": "target",
          "type": "address"
        }
      ],
      "name": "AddressEmptyCode",
      "type": "error"
    },
    {
      "inputs": [
        {
          "internalType": "address",
          "name": "account",
          "type": "address"
        }
      ],
      "name": "AddressInsufficientBalance",
      "type": "error"
    },
    {
      "inputs": [],
      "name": "AlreadyRedeemed",
      "type": "error"
    },
    {
      "inputs": [],
      "name": "AlreadyRefunded",
      "type": "error"
    },
    {
      "inputs": [],
      "name": "ContractAlreadyExist",
      "type": "error"
    },
    {
      "inputs": [],
      "name": "ContractNotExist",
      "type": "error"
    },
    {
      "inputs": [],
      "name": "FailedInnerCall",
      "type": "error"
    },
    {
      "inputs": [],
      "name": "FundsNotSent",
      "type": "error"
    },
    {
      "inputs": [],
      "name": "HashlockNotMatch",
      "type": "error"
    },
    {
      "inputs": [],
      "name": "IncorrectData",
      "type": "error"
    },
    {
      "inputs": [],
      "name": "NotFutureTimelock",
      "type": "error"
    },
    {
      "inputs": [],
      "name": "NotPassedTimelock",
      "type": "error"
    },
    {
      "inputs": [],
      "name": "NotReceiver",
      "type": "error"
    },
    {
      "inputs": [],
      "name": "NotSender",
      "type": "error"
    },
    {
      "inputs": [
        {
          "internalType": "address",
          "name": "token",
          "type": "address"
        }
      ],
      "name": "SafeERC20FailedOperation",
      "type": "error"
    },
    {
      "anonymous": false,
      "inputs": [
        {
          "indexed": true,
          "internalType": "bytes32[]",
          "name": "contractIds",
          "type": "bytes32[]"
        }
      ],
      "name": "HTLCERC20BatchRedeemed",
      "type": "event"
    },
    {
      "anonymous": false,
      "inputs": [
        {
          "indexed": true,
          "internalType": "bytes32",
          "name": "contractId",
          "type": "bytes32"
        },
        {
          "indexed": false,
          "internalType": "bytes32",
          "name": "hashlock",
          "type": "bytes32"
        },
        {
          "indexed": false,
          "internalType": "uint256",
          "name": "amount",
          "type": "uint256"
        },
        {
          "indexed": false,
          "internalType": "uint256",
          "name": "chainId",
          "type": "uint256"
        },
        {
          "indexed": false,
          "internalType": "uint256",
          "name": "timelock",
          "type": "uint256"
        },
        {
          "indexed": true,
          "internalType": "address",
          "name": "sender",
          "type": "address"
        },
        {
          "indexed": true,
          "internalType": "address",
          "name": "receiver",
          "type": "address"
        },
        {
          "indexed": false,
          "internalType": "address",
          "name": "tokenContract",
          "type": "address"
        },
        {
          "indexed": false,
          "internalType": "string",
          "name": "_address",
          "type": "string"
        }
      ],
      "name": "HTLCERC20Created",
      "type": "event"
    },
    {
      "anonymous": false,
      "inputs": [
        {
          "indexed": true,
          "internalType": "bytes32",
          "name": "contractId",
          "type": "bytes32"
        }
      ],
      "name": "HTLCERC20Redeemed",
      "type": "event"
    },
    {
      "anonymous": false,
      "inputs": [
        {
          "indexed": true,
          "internalType": "bytes32",
          "name": "contractId",
          "type": "bytes32"
        }
      ],
      "name": "HTLCERC20Refunded",
      "type": "event"
    },
    {
      "inputs": [
        {
          "internalType": "bytes32[]",
          "name": "_contractIds",
          "type": "bytes32[]"
        },
        {
          "internalType": "bytes32[]",
          "name": "_secrets",
          "type": "bytes32[]"
        }
      ],
      "name": "batchRedeem",
      "outputs": [
        {
          "internalType": "bool",
          "name": "",
          "type": "bool"
        }
      ],
      "stateMutability": "nonpayable",
      "type": "function"
    },
    {
      "inputs": [
        {
          "internalType": "address",
          "name": "_receiver",
          "type": "address"
        },
        {
          "internalType": "bytes32",
          "name": "_hashlock",
          "type": "bytes32"
        },
        {
          "internalType": "uint256",
          "name": "_timelock",
          "type": "uint256"
        },
        {
          "internalType": "address",
          "name": "_tokenContract",
          "type": "address"
        },
        {
          "internalType": "uint256",
          "name": "_amount",
          "type": "uint256"
        },
        {
          "internalType": "uint256",
          "name": "_chainID",
          "type": "uint256"
        },
        {
          "internalType": "string",
          "name": "_address",
          "type": "string"
        }
      ],
      "name": "createHTLC",
      "outputs": [
        {
          "internalType": "bytes32",
          "name": "contractId",
          "type": "bytes32"
        }
      ],
      "stateMutability": "nonpayable",
      "type": "function"
    },
    {
      "inputs": [
        {
          "internalType": "bytes32",
          "name": "_contractId",
          "type": "bytes32"
        }
      ],
      "name": "getHTLCDetails",
      "outputs": [
        {
          "internalType": "address",
          "name": "sender",
          "type": "address"
        },
        {
          "internalType": "address",
          "name": "receiver",
          "type": "address"
        },
        {
          "internalType": "address",
          "name": "tokenContract",
          "type": "address"
        },
        {
          "internalType": "uint256",
          "name": "amount",
          "type": "uint256"
        },
        {
          "internalType": "bytes32",
          "name": "hashlock",
          "type": "bytes32"
        },
        {
          "internalType": "uint256",
          "name": "timelock",
          "type": "uint256"
        },
        {
          "internalType": "bool",
          "name": "redeemed",
          "type": "bool"
        },
        {
          "internalType": "bool",
          "name": "refunded",
          "type": "bool"
        },
        {
          "internalType": "bytes32",
          "name": "secret",
          "type": "bytes32"
        }
      ],
      "stateMutability": "view",
      "type": "function"
    },
    {
      "inputs": [
        {
          "internalType": "bytes32",
          "name": "_contractId",
          "type": "bytes32"
        },
        {
          "internalType": "bytes32",
          "name": "_secret",
          "type": "bytes32"
        }
      ],
      "name": "redeem",
      "outputs": [
        {
          "internalType": "bool",
          "name": "",
          "type": "bool"
        }
      ],
      "stateMutability": "nonpayable",
      "type": "function"
    },
    {
      "inputs": [
        {
          "internalType": "bytes32",
          "name": "_contractId",
          "type": "bytes32"
        }
      ],
      "name": "refund",
      "outputs": [
        {
          "internalType": "bool",
          "name": "",
          "type": "bool"
        }
      ],
      "stateMutability": "nonpayable",
      "type": "function"
    }
  ],
  "bytecode": "0x608060405234801561001057600080fd5b506111fc806100206000396000f3fe608060405234801561001057600080fd5b50600436106100575760003560e01c80637249fbb61461005c5780638928777e146100845780638e08c081146100f0578063b31597ad14610103578063c7eb321914610116575b600080fd5b61006f61006a366004610e1b565b610137565b60405190151581526020015b60405180910390f35b610097610092366004610e1b565b610287565b604080516001600160a01b039a8b168152988a1660208a015296909816958701959095526060860193909352608085019190915260a0840152151560c0830152151560e08201526101008101919091526101200161007b565b61006f6100fe366004610efb565b61033c565b61006f610111366004610f5f565b610676565b610129610124366004610f9d565b6108c8565b60405190815260200161007b565b60008161014381610bb9565b6101605760405163ada0853d60e01b815260040160405180910390fd5b600083815260208190526040902060048101546001600160a01b0316331461019b5760405163b2c3aa6b60e01b815260040160405180910390fd5b6006810154600160a81b900460ff16156101c85760405163542f378d60e11b815260040160405180910390fd5b6006810154600160a01b900460ff16156101f5576040516306d3830f60e21b815260040160405180910390fd5b428160030154111561021a5760405163b3f711f760e01b815260040160405180910390fd5b60068101805460ff60a81b198116600160a81b1790915560048201546002830154610252926001600160a01b03908116921690610bd9565b60405184907f25c0cb42002f469b8c07222f77709effe07c20669210af3511c8a0eaf671006690600090a25060019392505050565b600080600080600080600080600061029e8a610bb9565b15156000036102c75750600097508796508695508594508493508392508291508190508061032f565b50505060008781526020819052604090206004810154600582015460068301546002840154845460038601546001909601546001600160a01b039586169c509385169a509382169850965091945091925060ff600160a01b8204811692600160a81b90920416905b9193959799909294969850565b6000815183511461036057604051632da91f4160e01b815260040160405180910390fd5b60005b83518110156103bd5761038e8482815181106103815761038161107a565b6020026020010151610bb9565b6103ab5760405163ada0853d60e01b815260040160405180910390fd5b806103b581611090565b915050610363565b5060005b835181101561062e5760008060008684815181106103e1576103e161107a565b6020026020010151815260200190815260200160002090506000600285848151811061040f5761040f61107a565b602002602001015160405160200161042991815260200190565b60408051601f1981840301815290829052610443916110db565b602060405180830381855afa158015610460573d6000803e3d6000fd5b5050506040513d601f19601f8201168201806040525081019061048391906110f7565b905060028160405160200161049a91815260200190565b60408051601f19818403018152908290526104b4916110db565b602060405180830381855afa1580156104d1573d6000803e3d6000fd5b5050506040513d601f19601f820116820180604052508101906104f491906110f7565b8254146105145760405163e73bcb3560e01b815260040160405180910390fd5b60058201546001600160a01b0316331461054157604051635a06399f60e11b815260040160405180910390fd5b6006820154600160a01b900460ff161561056e576040516306d3830f60e21b815260040160405180910390fd5b6006820154600160a81b900460ff161561059b5760405163542f378d60e11b815260040160405180910390fd5b428260030154116105bf57604051633dd8280960e21b815260040160405180910390fd5b8483815181106105d1576105d161107a565b6020908102919091010151600183015560068201805460ff60a01b198116600160a01b1790915560058301546002840154610619926001600160a01b03908116921690610bd9565b5050808061062690611090565b9150506103c1565b508260405161063d9190611110565b604051908190038120907f168d11aac296a242dc1e095ecdea3ec99faa33976429aa96d3e11675b46b8a6790600090a250600192915050565b60008261068281610bb9565b61069f5760405163ada0853d60e01b815260040160405180910390fd5b600084815260208181526040808320815192830187905292916002910160408051601f19818403018152908290526106d6916110db565b602060405180830381855afa1580156106f3573d6000803e3d6000fd5b5050506040513d601f19601f8201168201806040525081019061071691906110f7565b905060028160405160200161072d91815260200190565b60408051601f1981840301815290829052610747916110db565b602060405180830381855afa158015610764573d6000803e3d6000fd5b5050506040513d601f19601f8201168201806040525081019061078791906110f7565b8254146107a75760405163e73bcb3560e01b815260040160405180910390fd5b60058201546001600160a01b031633146107d457604051635a06399f60e11b815260040160405180910390fd5b6006820154600160a01b900460ff1615610801576040516306d3830f60e21b815260040160405180910390fd5b6006820154600160a81b900460ff161561082e5760405163542f378d60e11b815260040160405180910390fd5b4282600301541161085257604051633dd8280960e21b815260040160405180910390fd5b6001820185905560068201805460ff60a01b198116600160a01b1790915560058301546002840154610891926001600160a01b03908116921690610bd9565b60405186907f6fb40a468f0b7b481c795fc654df74df59b2d9518e8ee2b7b77ed8d7b985953190600090a250600195945050505050565b60004286116108ea57604051633dd8280960e21b815260040160405180910390fd5b8360000361090b57604051636f8ab38d60e11b815260040160405180910390fd5b6040516bffffffffffffffffffffffff1933606090811b821660208401528a811b8216603484015287901b166048820152605c8101859052607c8101889052609c810187905260029060bc0160408051601f1981840301815290829052610971916110db565b602060405180830381855afa15801561098e573d6000803e3d6000fd5b5050506040513d601f19601f820116820180604052508101906109b191906110f7565b90506109bc81610bb9565b156109da5760405163bb0c4cf160e01b815260040160405180910390fd5b6109ef6001600160a01b038616333087610c3d565b6040518061012001604052808881526020016000801b8152602001858152602001878152602001336001600160a01b03168152602001896001600160a01b03168152602001866001600160a01b03168152602001600015158152602001600015158152506000808381526020019081526020016000206000820151816000015560208201518160010155604082015181600201556060820151816003015560808201518160040160006101000a8154816001600160a01b0302191690836001600160a01b0316021790555060a08201518160050160006101000a8154816001600160a01b0302191690836001600160a01b0316021790555060c08201518160060160006101000a8154816001600160a01b0302191690836001600160a01b0316021790555060e08201518160060160146101000a81548160ff0219169083151502179055506101008201518160060160156101000a81548160ff021916908315150217905550905050876001600160a01b0316336001600160a01b0316827ff04e02eb054dfd7aeb13ec2a219920450ec5905540fc4c4d279a2ca755fc95718a88888c8c8a604051610ba696959493929190611146565b60405180910390a4979650505050505050565b6000908152602081905260409020600401546001600160a01b0316151590565b6040516001600160a01b03838116602483015260448201839052610c3891859182169063a9059cbb906064015b604051602081830303815290604052915060e01b6020820180516001600160e01b038381831617835250505050610c7c565b505050565b6040516001600160a01b038481166024830152838116604483015260648201839052610c769186918216906323b872dd90608401610c06565b50505050565b6000610c916001600160a01b03841683610ce4565b90508051600014158015610cb6575080806020019051810190610cb491906111a4565b155b15610c3857604051635274afe760e01b81526001600160a01b03841660048201526024015b60405180910390fd5b6060610cf283836000610cf9565b9392505050565b606081471015610d1e5760405163cd78605960e01b8152306004820152602401610cdb565b600080856001600160a01b03168486604051610d3a91906110db565b60006040518083038185875af1925050503d8060008114610d77576040519150601f19603f3d011682016040523d82523d6000602084013e610d7c565b606091505b5091509150610d8c868383610d96565b9695505050505050565b606082610dab57610da682610df2565b610cf2565b8151158015610dc257506001600160a01b0384163b155b15610deb57604051639996b31560e01b81526001600160a01b0385166004820152602401610cdb565b5080610cf2565b805115610e025780518082602001fd5b604051630a12f52160e11b815260040160405180910390fd5b600060208284031215610e2d57600080fd5b5035919050565b634e487b7160e01b600052604160045260246000fd5b604051601f8201601f1916810167ffffffffffffffff81118282101715610e7357610e73610e34565b604052919050565b600082601f830112610e8c57600080fd5b8135602067ffffffffffffffff821115610ea857610ea8610e34565b8160051b610eb7828201610e4a565b9283528481018201928281019087851115610ed157600080fd5b83870192505b84831015610ef057823582529183019190830190610ed7565b979650505050505050565b60008060408385031215610f0e57600080fd5b823567ffffffffffffffff80821115610f2657600080fd5b610f3286838701610e7b565b93506020850135915080821115610f4857600080fd5b50610f5585828601610e7b565b9150509250929050565b60008060408385031215610f7257600080fd5b50508035926020909101359150565b80356001600160a01b0381168114610f9857600080fd5b919050565b600080600080600080600060e0888a031215610fb857600080fd5b610fc188610f81565b9650602080890135965060408901359550610fde60608a01610f81565b94506080890135935060a0890135925060c089013567ffffffffffffffff8082111561100957600080fd5b818b0191508b601f83011261101d57600080fd5b81358181111561102f5761102f610e34565b611041601f8201601f19168501610e4a565b91508082528c8482850101111561105757600080fd5b808484018584013760008482840101525080935050505092959891949750929550565b634e487b7160e01b600052603260045260246000fd5b6000600182016110b057634e487b7160e01b600052601160045260246000fd5b5060010190565b60005b838110156110d25781810151838201526020016110ba565b50506000910152565b600082516110ed8184602087016110b7565b9190910192915050565b60006020828403121561110957600080fd5b5051919050565b815160009082906020808601845b8381101561113a5781518552938201939082019060010161111e565b50929695505050505050565b86815285602082015284604082015283606082015260018060a01b038316608082015260c060a0820152600082518060c084015261118b8160e08501602087016110b7565b601f01601f19169190910160e001979650505050505050565b6000602082840312156111b657600080fd5b81518015158114610cf257600080fdfea2646970667358221220bc6b6da86cdbf91f840ecdc87c20a5153f277dad7879a56a533a4e04fe7f13b864736f6c63430008140033",
  "linkReferences": {},
  "deployedLinkReferences": {}
}