{"contracts/HashedTimelockEther.sol":{"HashedTimelockEther":{"abi":[{"inputs":[],"name":"AlreadyRedeemed","type":"error"},{"inputs":[],"name":"AlreadyRefunded","type":"error"},{"inputs":[],"name":"ContractAlreadyExist","type":"error"},{"inputs":[],"name":"ContractNotExist","type":"error"},{"inputs":[],"name":"FundsNotSent","type":"error"},{"inputs":[],"name":"HashlockNotMatch","type":"error"},{"inputs":[],"name":"IncorrectData","type":"error"},{"inputs":[],"name":"NotFutureTimelock","type":"error"},{"inputs":[],"name":"NotPassedTimelock","type":"error"},{"inputs":[],"name":"NotReceiver","type":"error"},{"inputs":[],"name":"NotSender","type":"error"},{"anonymous":false,"inputs":[{"indexed":true,"internalType":"bytes32[]","name":"contractId","type":"bytes32[]"}],"name":"HTLCEtherBatchRedeemed","type":"event"},{"anonymous":false,"inputs":[{"indexed":true,"internalType":"bytes32","name":"contractId","type":"bytes32"},{"indexed":false,"internalType":"bytes32","name":"hashlock","type":"bytes32"},{"indexed":false,"internalType":"uint256","name":"amount","type":"uint256"},{"indexed":false,"internalType":"uint256","name":"chainID","type":"uint256"},{"indexed":false,"internalType":"uint256","name":"timelock","type":"uint256"},{"indexed":true,"internalType":"address","name":"sender","type":"address"},{"indexed":true,"internalType":"address","name":"receiver","type":"address"},{"indexed":false,"internalType":"string","name":"_address","type":"string"}],"name":"HTLCEtherCreated","type":"event"},{"anonymous":false,"inputs":[{"indexed":true,"internalType":"bytes32","name":"contractId","type":"bytes32"}],"name":"HTLCEtherRedeemed","type":"event"},{"anonymous":false,"inputs":[{"indexed":true,"internalType":"bytes32","name":"contractId","type":"bytes32"}],"name":"HTLCEtherRefunded","type":"event"},{"inputs":[{"internalType":"bytes32[]","name":"_contractIds","type":"bytes32[]"},{"internalType":"bytes32[]","name":"_secrets","type":"bytes32[]"}],"name":"batchRedeem","outputs":[{"internalType":"bool","name":"","type":"bool"}],"stateMutability":"nonpayable","type":"function"},{"inputs":[{"internalType":"address payable","name":"_receiver","type":"address"},{"internalType":"bytes32","name":"_hashlock","type":"bytes32"},{"internalType":"uint256","name":"_timelock","type":"uint256"},{"internalType":"uint256","name":"_chainID","type":"uint256"},{"internalType":"string","name":"_address","type":"string"}],"name":"createHTLC","outputs":[{"internalType":"bytes32","name":"contractId","type":"bytes32"}],"stateMutability":"payable","type":"function"},{"inputs":[{"internalType":"bytes32","name":"_contractId","type":"bytes32"}],"name":"getHTLCDetails","outputs":[{"internalType":"address","name":"sender","type":"address"},{"internalType":"address","name":"receiver","type":"address"},{"internalType":"uint256","name":"amount","type":"uint256"},{"internalType":"bytes32","name":"hashlock","type":"bytes32"},{"internalType":"uint256","name":"timelock","type":"uint256"},{"internalType":"bool","name":"redeemed","type":"bool"},{"internalType":"bool","name":"refunded","type":"bool"},{"internalType":"bytes32","name":"secret","type":"bytes32"}],"stateMutability":"view","type":"function"},{"inputs":[{"internalType":"bytes32","name":"_contractId","type":"bytes32"},{"internalType":"bytes32","name":"_secret","type":"bytes32"}],"name":"redeem","outputs":[{"internalType":"bool","name":"","type":"bool"}],"stateMutability":"nonpayable","type":"function"},{"inputs":[{"internalType":"bytes32","name":"_contractId","type":"bytes32"}],"name":"refund","outputs":[{"internalType":"bool","name":"","type":"bool"}],"stateMutability":"nonpayable","type":"function"}],"evm":{"bytecode":{"linkReferences":{},"object":"608060405234801561001057600080fd5b50610f75806100206000396000f3fe60806040526004361061004a5760003560e01c80635ae314ec1461004f5780637249fbb6146100755780638928777e146100a55780638e08c0811461010f578063b31597ad1461012f575b600080fd5b61006261005d366004610c19565b61014f565b6040519081526020015b60405180910390f35b34801561008157600080fd5b50610095610090366004610cea565b6103df565b604051901515815260200161006c565b3480156100b157600080fd5b506100c56100c0366004610cea565b61054d565b604080516001600160a01b03998a1681529890971660208901529587019490945260608601929092526080850152151560a0840152151560c083015260e08201526101000161006c565b34801561011b57600080fd5b5061009561012a366004610d83565b6105eb565b34801561013b57600080fd5b5061009561014a366004610de7565b610945565b60003460000361017257604051636f8ab38d60e11b815260040160405180910390fd5b42841161019257604051633dd8280960e21b815260040160405180910390fd5b6040516bffffffffffffffffffffffff1933606090811b8216602084015288901b166034820152346048820152606881018690526088810185905260029060a80160408051601f19818403018152908290526101ed91610e2d565b602060405180830381855afa15801561020a573d6000803e3d6000fd5b5050506040513d601f19601f8201168201806040525081019061022d9190610e49565b905061023881610bb2565b156102565760405163bb0c4cf160e01b815260040160405180910390fd5b6040518061010001604052808681526020016000801b8152602001348152602001858152602001336001600160a01b03168152602001876001600160a01b03168152602001600015158152602001600015158152506000808381526020019081526020016000206000820151816000015560208201518160010155604082015181600201556060820151816003015560808201518160040160006101000a8154816001600160a01b0302191690836001600160a01b0316021790555060a08201518160050160006101000a8154816001600160a01b0302191690836001600160a01b0316021790555060c08201518160050160146101000a81548160ff02191690831515021790555060e08201518160050160156101000a81548160ff021916908315150217905550905050856001600160a01b0316336001600160a01b0316827fc0a192e219af793b8911d5cf8f98089a2546e6201daca6ae0a605c27d4e0250e8834888a896040516103ce959493929190610e62565b60405180910390a495945050505050565b6000816103eb81610bb2565b6104085760405163ada0853d60e01b815260040160405180910390fd5b600083815260208190526040902060048101546001600160a01b031633146104435760405163b2c3aa6b60e01b815260040160405180910390fd5b6005810154600160a81b900460ff16156104705760405163542f378d60e11b815260040160405180910390fd5b6005810154600160a01b900460ff161561049d576040516306d3830f60e21b815260040160405180910390fd5b42816003015411156104c25760405163b3f711f760e01b815260040160405180910390fd5b60058101805460ff60a81b1916600160a81b179055600481015460028201546040516001600160a01b039092169181156108fc0291906000818181858888f19350505050158015610517573d6000803e3d6000fd5b5060405184907fa45e0944c51c37a3fc70f1153c0374f32ed9c9d26b16b48c25271bf340efa84f90600090a25060019392505050565b60008060008060008060008061056289610bb2565b610583575060009650869550859450849350839250829150819050806105e0565b5050506000868152602081905260409020600481015460058201546002830154835460038501546001909501546001600160a01b039485169a509383169850909650945091925060ff600160a01b8304811692600160a81b900416905b919395975091939597565b6000815183511461060f57604051632da91f4160e01b815260040160405180910390fd5b60005b835181101561066c5761063d84828151811061063057610630610eb1565b6020026020010151610bb2565b61065a5760405163ada0853d60e01b815260040160405180910390fd5b8061066481610edd565b915050610612565b506000805b84518110156108cc57600080600087848151811061069157610691610eb1565b602002602001015181526020019081526020016000209050600060028684815181106106bf576106bf610eb1565b60200260200101516040516020016106d991815260200190565b60408051601f19818403018152908290526106f391610e2d565b602060405180830381855afa158015610710573d6000803e3d6000fd5b5050506040513d601f19601f820116820180604052508101906107339190610e49565b905060028160405160200161074a91815260200190565b60408051601f198184030181529082905261076491610e2d565b602060405180830381855afa158015610781573d6000803e3d6000fd5b5050506040513d601f19601f820116820180604052508101906107a49190610e49565b8254146107c45760405163e73bcb3560e01b815260040160405180910390fd5b60058201546001600160a01b031633146107f157604051635a06399f60e11b815260040160405180910390fd5b6005820154600160a81b900460ff161561081e5760405163542f378d60e11b815260040160405180910390fd5b6005820154600160a01b900460ff161561084b576040516306d3830f60e21b815260040160405180910390fd5b4282600301541161086f57604051633dd8280960e21b815260040160405180910390fd5b85838151811061088157610881610eb1565b6020908102919091010151600183015560058201805460ff60a01b1916600160a01b17905560028201546108b59085610ef6565b9350505080806108c490610edd565b915050610671565b50604051339082156108fc029083906000818181858888f193505050501580156108fa573d6000803e3d6000fd5b50836040516109099190610f09565b604051908190038120907fcafef545e79f2768dc1f93ee4ccbad744d76cf959784a6d88bb06af657f2f3cc90600090a260019150505b92915050565b60008261095181610bb2565b61096e5760405163ada0853d60e01b815260040160405180910390fd5b600084815260208181526040808320815192830187905292916002910160408051601f19818403018152908290526109a591610e2d565b602060405180830381855afa1580156109c2573d6000803e3d6000fd5b5050506040513d601f19601f820116820180604052508101906109e59190610e49565b90506002816040516020016109fc91815260200190565b60408051601f1981840301815290829052610a1691610e2d565b602060405180830381855afa158015610a33573d6000803e3d6000fd5b5050506040513d601f19601f82011682018060405250810190610a569190610e49565b825414610a765760405163e73bcb3560e01b815260040160405180910390fd5b60058201546001600160a01b03163314610aa357604051635a06399f60e11b815260040160405180910390fd5b6005820154600160a81b900460ff1615610ad05760405163542f378d60e11b815260040160405180910390fd5b6005820154600160a01b900460ff1615610afd576040516306d3830f60e21b815260040160405180910390fd5b42826003015411610b2157604051633dd8280960e21b815260040160405180910390fd5b6001820185905560058201805460ff60a01b198116600160a01b1790915560028301546040516001600160a01b039092169181156108fc0291906000818181858888f19350505050158015610b7a573d6000803e3d6000fd5b5060405186907f9c99e224f6de9465364296f787b16047e11cf4a367c73fc3e979dda64d3e668c90600090a250600195945050505050565b6000908152602081905260409020600401546001600160a01b0316151590565b634e487b7160e01b600052604160045260246000fd5b604051601f8201601f1916810167ffffffffffffffff81118282101715610c1157610c11610bd2565b604052919050565b600080600080600060a08688031215610c3157600080fd5b85356001600160a01b0381168114610c4857600080fd5b945060208681013594506040870135935060608701359250608087013567ffffffffffffffff80821115610c7b57600080fd5b818901915089601f830112610c8f57600080fd5b813581811115610ca157610ca1610bd2565b610cb3601f8201601f19168501610be8565b91508082528a84828501011115610cc957600080fd5b80848401858401376000848284010152508093505050509295509295909350565b600060208284031215610cfc57600080fd5b5035919050565b600082601f830112610d1457600080fd5b8135602067ffffffffffffffff821115610d3057610d30610bd2565b8160051b610d3f828201610be8565b9283528481018201928281019087851115610d5957600080fd5b83870192505b84831015610d7857823582529183019190830190610d5f565b979650505050505050565b60008060408385031215610d9657600080fd5b823567ffffffffffffffff80821115610dae57600080fd5b610dba86838701610d03565b93506020850135915080821115610dd057600080fd5b50610ddd85828601610d03565b9150509250929050565b60008060408385031215610dfa57600080fd5b50508035926020909101359150565b60005b83811015610e24578181015183820152602001610e0c565b50506000910152565b60008251610e3f818460208701610e09565b9190910192915050565b600060208284031215610e5b57600080fd5b5051919050565b85815284602082015283604082015282606082015260a06080820152600082518060a0840152610e998160c0850160208701610e09565b601f01601f19169190910160c0019695505050505050565b634e487b7160e01b600052603260045260246000fd5b634e487b7160e01b600052601160045260246000fd5b600060018201610eef57610eef610ec7565b5060010190565b8082018082111561093f5761093f610ec7565b815160009082906020808601845b83811015610f3357815185529382019390820190600101610f17565b5092969550505050505056fea26469706673582212204c7d192d5d3a3cf52f8a670264ee268c622e4c65d287c2ba3e0cf0f6bbbd374c64736f6c63430008140033","opcodes":"PUSH1 0x80 PUSH1 0x40 MSTORE CALLVALUE DUP1 ISZERO PUSH2 0x10 JUMPI PUSH1 0x0 DUP1 REVERT JUMPDEST POP PUSH2 0xF75 DUP1 PUSH2 0x20 PUSH1 0x0 CODECOPY PUSH1 0x0 RETURN INVALID PUSH1 0x80 PUSH1 0x40 MSTORE PUSH1 0x4 CALLDATASIZE LT PUSH2 0x4A JUMPI PUSH1 0x0 CALLDATALOAD PUSH1 0xE0 SHR DUP1 PUSH4 0x5AE314EC EQ PUSH2 0x4F JUMPI DUP1 PUSH4 0x7249FBB6 EQ PUSH2 0x75 JUMPI DUP1 PUSH4 0x8928777E EQ PUSH2 0xA5 JUMPI DUP1 PUSH4 0x8E08C081 EQ PUSH2 0x10F JUMPI DUP1 PUSH4 0xB31597AD EQ PUSH2 0x12F JUMPI JUMPDEST PUSH1 0x0 DUP1 REVERT JUMPDEST PUSH2 0x62 PUSH2 0x5D CALLDATASIZE PUSH1 0x4 PUSH2 0xC19 JUMP JUMPDEST PUSH2 0x14F JUMP JUMPDEST PUSH1 0x40 MLOAD SWAP1 DUP2 MSTORE PUSH1 0x20 ADD JUMPDEST PUSH1 0x40 MLOAD DUP1 SWAP2 SUB SWAP1 RETURN JUMPDEST CALLVALUE DUP1 ISZERO PUSH2 0x81 JUMPI PUSH1 0x0 DUP1 REVERT JUMPDEST POP PUSH2 0x95 PUSH2 0x90 CALLDATASIZE PUSH1 0x4 PUSH2 0xCEA JUMP JUMPDEST PUSH2 0x3DF JUMP JUMPDEST PUSH1 0x40 MLOAD SWAP1 ISZERO ISZERO DUP2 MSTORE PUSH1 0x20 ADD PUSH2 0x6C JUMP JUMPDEST CALLVALUE DUP1 ISZERO PUSH2 0xB1 JUMPI PUSH1 0x0 DUP1 REVERT JUMPDEST POP PUSH2 0xC5 PUSH2 0xC0 CALLDATASIZE PUSH1 0x4 PUSH2 0xCEA JUMP JUMPDEST PUSH2 0x54D JUMP JUMPDEST PUSH1 0x40 DUP1 MLOAD PUSH1 0x1 PUSH1 0x1 PUSH1 0xA0 SHL SUB SWAP10 DUP11 AND DUP2 MSTORE SWAP9 SWAP1 SWAP8 AND PUSH1 0x20 DUP10 ADD MSTORE SWAP6 DUP8 ADD SWAP5 SWAP1 SWAP5 MSTORE PUSH1 0x60 DUP7 ADD SWAP3 SWAP1 SWAP3 MSTORE PUSH1 0x80 DUP6 ADD MSTORE ISZERO ISZERO PUSH1 0xA0 DUP5 ADD MSTORE ISZERO ISZERO PUSH1 0xC0 DUP4 ADD MSTORE PUSH1 0xE0 DUP3 ADD MSTORE PUSH2 0x100 ADD PUSH2 0x6C JUMP JUMPDEST CALLVALUE DUP1 ISZERO PUSH2 0x11B JUMPI PUSH1 0x0 DUP1 REVERT JUMPDEST POP PUSH2 0x95 PUSH2 0x12A CALLDATASIZE PUSH1 0x4 PUSH2 0xD83 JUMP JUMPDEST PUSH2 0x5EB JUMP JUMPDEST CALLVALUE DUP1 ISZERO PUSH2 0x13B JUMPI PUSH1 0x0 DUP1 REVERT JUMPDEST POP PUSH2 0x95 PUSH2 0x14A CALLDATASIZE PUSH1 0x4 PUSH2 0xDE7 JUMP JUMPDEST PUSH2 0x945 JUMP JUMPDEST PUSH1 0x0 CALLVALUE PUSH1 0x0 SUB PUSH2 0x172 JUMPI PUSH1 0x40 MLOAD PUSH4 0x6F8AB38D PUSH1 0xE1 SHL DUP2 MSTORE PUSH1 0x4 ADD PUSH1 0x40 MLOAD DUP1 SWAP2 SUB SWAP1 REVERT JUMPDEST TIMESTAMP DUP5 GT PUSH2 0x192 JUMPI PUSH1 0x40 MLOAD PUSH4 0x3DD82809 PUSH1 0xE2 SHL DUP2 MSTORE PUSH1 0x4 ADD PUSH1 0x40 MLOAD DUP1 SWAP2 SUB SWAP1 REVERT JUMPDEST PUSH1 0x40 MLOAD PUSH12 0xFFFFFFFFFFFFFFFFFFFFFFFF NOT CALLER PUSH1 0x60 SWAP1 DUP2 SHL DUP3 AND PUSH1 0x20 DUP5 ADD MSTORE DUP9 SWAP1 SHL AND PUSH1 0x34 DUP3 ADD MSTORE CALLVALUE PUSH1 0x48 DUP3 ADD MSTORE PUSH1 0x68 DUP2 ADD DUP7 SWAP1 MSTORE PUSH1 0x88 DUP2 ADD DUP6 SWAP1 MSTORE PUSH1 0x2 SWAP1 PUSH1 0xA8 ADD PUSH1 0x40 DUP1 MLOAD PUSH1 0x1F NOT DUP2 DUP5 SUB ADD DUP2 MSTORE SWAP1 DUP3 SWAP1 MSTORE PUSH2 0x1ED SWAP2 PUSH2 0xE2D JUMP JUMPDEST PUSH1 0x20 PUSH1 0x40 MLOAD DUP1 DUP4 SUB DUP2 DUP6 GAS STATICCALL ISZERO DUP1 ISZERO PUSH2 0x20A JUMPI RETURNDATASIZE PUSH1 0x0 DUP1 RETURNDATACOPY RETURNDATASIZE PUSH1 0x0 REVERT JUMPDEST POP POP POP PUSH1 0x40 MLOAD RETURNDATASIZE PUSH1 0x1F NOT PUSH1 0x1F DUP3 ADD AND DUP3 ADD DUP1 PUSH1 0x40 MSTORE POP DUP2 ADD SWAP1 PUSH2 0x22D SWAP2 SWAP1 PUSH2 0xE49 JUMP JUMPDEST SWAP1 POP PUSH2 0x238 DUP2 PUSH2 0xBB2 JUMP JUMPDEST ISZERO PUSH2 0x256 JUMPI PUSH1 0x40 MLOAD PUSH4 0xBB0C4CF1 PUSH1 0xE0 SHL DUP2 MSTORE PUSH1 0x4 ADD PUSH1 0x40 MLOAD DUP1 SWAP2 SUB SWAP1 REVERT JUMPDEST PUSH1 0x40 MLOAD DUP1 PUSH2 0x100 ADD PUSH1 0x40 MSTORE DUP1 DUP7 DUP2 MSTORE PUSH1 0x20 ADD PUSH1 0x0 DUP1 SHL DUP2 MSTORE PUSH1 0x20 ADD CALLVALUE DUP2 MSTORE PUSH1 0x20 ADD DUP6 DUP2 MSTORE PUSH1 0x20 ADD CALLER PUSH1 0x1 PUSH1 0x1 PUSH1 0xA0 SHL SUB AND DUP2 MSTORE PUSH1 0x20 ADD DUP8 PUSH1 0x1 PUSH1 0x1 PUSH1 0xA0 SHL SUB AND DUP2 MSTORE PUSH1 0x20 ADD PUSH1 0x0 ISZERO ISZERO DUP2 MSTORE PUSH1 0x20 ADD PUSH1 0x0 ISZERO ISZERO DUP2 MSTORE POP PUSH1 0x0 DUP1 DUP4 DUP2 MSTORE PUSH1 0x20 ADD SWAP1 DUP2 MSTORE PUSH1 0x20 ADD PUSH1 0x0 KECCAK256 PUSH1 0x0 DUP3 ADD MLOAD DUP2 PUSH1 0x0 ADD SSTORE PUSH1 0x20 DUP3 ADD MLOAD DUP2 PUSH1 0x1 ADD SSTORE PUSH1 0x40 DUP3 ADD MLOAD DUP2 PUSH1 0x2 ADD SSTORE PUSH1 0x60 DUP3 ADD MLOAD DUP2 PUSH1 0x3 ADD SSTORE PUSH1 0x80 DUP3 ADD MLOAD DUP2 PUSH1 0x4 ADD PUSH1 0x0 PUSH2 0x100 EXP DUP2 SLOAD DUP2 PUSH1 0x1 PUSH1 0x1 PUSH1 0xA0 SHL SUB MUL NOT AND SWAP1 DUP4 PUSH1 0x1 PUSH1 0x1 PUSH1 0xA0 SHL SUB AND MUL OR SWAP1 SSTORE POP PUSH1 0xA0 DUP3 ADD MLOAD DUP2 PUSH1 0x5 ADD PUSH1 0x0 PUSH2 0x100 EXP DUP2 SLOAD DUP2 PUSH1 0x1 PUSH1 0x1 PUSH1 0xA0 SHL SUB MUL NOT AND SWAP1 DUP4 PUSH1 0x1 PUSH1 0x1 PUSH1 0xA0 SHL SUB AND MUL OR SWAP1 SSTORE POP PUSH1 0xC0 DUP3 ADD MLOAD DUP2 PUSH1 0x5 ADD PUSH1 0x14 PUSH2 0x100 EXP DUP2 SLOAD DUP2 PUSH1 0xFF MUL NOT AND SWAP1 DUP4 ISZERO ISZERO MUL OR SWAP1 SSTORE POP PUSH1 0xE0 DUP3 ADD MLOAD DUP2 PUSH1 0x5 ADD PUSH1 0x15 PUSH2 0x100 EXP DUP2 SLOAD DUP2 PUSH1 0xFF MUL NOT AND SWAP1 DUP4 ISZERO ISZERO MUL OR SWAP1 SSTORE POP SWAP1 POP POP DUP6 PUSH1 0x1 PUSH1 0x1 PUSH1 0xA0 SHL SUB AND CALLER PUSH1 0x1 PUSH1 0x1 PUSH1 0xA0 SHL SUB AND DUP3 PUSH32 0xC0A192E219AF793B8911D5CF8F98089A2546E6201DACA6AE0A605C27D4E0250E DUP9 CALLVALUE DUP9 DUP11 DUP10 PUSH1 0x40 MLOAD PUSH2 0x3CE SWAP6 SWAP5 SWAP4 SWAP3 SWAP2 SWAP1 PUSH2 0xE62 JUMP JUMPDEST PUSH1 0x40 MLOAD DUP1 SWAP2 SUB SWAP1 LOG4 SWAP6 SWAP5 POP POP POP POP POP JUMP JUMPDEST PUSH1 0x0 DUP2 PUSH2 0x3EB DUP2 PUSH2 0xBB2 JUMP JUMPDEST PUSH2 0x408 JUMPI PUSH1 0x40 MLOAD PUSH4 0xADA0853D PUSH1 0xE0 SHL DUP2 MSTORE PUSH1 0x4 ADD PUSH1 0x40 MLOAD DUP1 SWAP2 SUB SWAP1 REVERT JUMPDEST PUSH1 0x0 DUP4 DUP2 MSTORE PUSH1 0x20 DUP2 SWAP1 MSTORE PUSH1 0x40 SWAP1 KECCAK256 PUSH1 0x4 DUP2 ADD SLOAD PUSH1 0x1 PUSH1 0x1 PUSH1 0xA0 SHL SUB AND CALLER EQ PUSH2 0x443 JUMPI PUSH1 0x40 MLOAD PUSH4 0xB2C3AA6B PUSH1 0xE0 SHL DUP2 MSTORE PUSH1 0x4 ADD PUSH1 0x40 MLOAD DUP1 SWAP2 SUB SWAP1 REVERT JUMPDEST PUSH1 0x5 DUP2 ADD SLOAD PUSH1 0x1 PUSH1 0xA8 SHL SWAP1 DIV PUSH1 0xFF AND ISZERO PUSH2 0x470 JUMPI PUSH1 0x40 MLOAD PUSH4 0x542F378D PUSH1 0xE1 SHL DUP2 MSTORE PUSH1 0x4 ADD PUSH1 0x40 MLOAD DUP1 SWAP2 SUB SWAP1 REVERT JUMPDEST PUSH1 0x5 DUP2 ADD SLOAD PUSH1 0x1 PUSH1 0xA0 SHL SWAP1 DIV PUSH1 0xFF AND ISZERO PUSH2 0x49D JUMPI PUSH1 0x40 MLOAD PUSH4 0x6D3830F PUSH1 0xE2 SHL DUP2 MSTORE PUSH1 0x4 ADD PUSH1 0x40 MLOAD DUP1 SWAP2 SUB SWAP1 REVERT JUMPDEST TIMESTAMP DUP2 PUSH1 0x3 ADD SLOAD GT ISZERO PUSH2 0x4C2 JUMPI PUSH1 0x40 MLOAD PUSH4 0xB3F711F7 PUSH1 0xE0 SHL DUP2 MSTORE PUSH1 0x4 ADD PUSH1 0x40 MLOAD DUP1 SWAP2 SUB SWAP1 REVERT JUMPDEST PUSH1 0x5 DUP2 ADD DUP1 SLOAD PUSH1 0xFF PUSH1 0xA8 SHL NOT AND PUSH1 0x1 PUSH1 0xA8 SHL OR SWAP1 SSTORE PUSH1 0x4 DUP2 ADD SLOAD PUSH1 0x2 DUP3 ADD SLOAD PUSH1 0x40 MLOAD PUSH1 0x1 PUSH1 0x1 PUSH1 0xA0 SHL SUB SWAP1 SWAP3 AND SWAP2 DUP2 ISZERO PUSH2 0x8FC MUL SWAP2 SWAP1 PUSH1 0x0 DUP2 DUP2 DUP2 DUP6 DUP9 DUP9 CALL SWAP4 POP POP POP POP ISZERO DUP1 ISZERO PUSH2 0x517 JUMPI RETURNDATASIZE PUSH1 0x0 DUP1 RETURNDATACOPY RETURNDATASIZE PUSH1 0x0 REVERT JUMPDEST POP PUSH1 0x40 MLOAD DUP5 SWAP1 PUSH32 0xA45E0944C51C37A3FC70F1153C0374F32ED9C9D26B16B48C25271BF340EFA84F SWAP1 PUSH1 0x0 SWAP1 LOG2 POP PUSH1 0x1 SWAP4 SWAP3 POP POP POP JUMP JUMPDEST PUSH1 0x0 DUP1 PUSH1 0x0 DUP1 PUSH1 0x0 DUP1 PUSH1 0x0 DUP1 PUSH2 0x562 DUP10 PUSH2 0xBB2 JUMP JUMPDEST PUSH2 0x583 JUMPI POP PUSH1 0x0 SWAP7 POP DUP7 SWAP6 POP DUP6 SWAP5 POP DUP5 SWAP4 POP DUP4 SWAP3 POP DUP3 SWAP2 POP DUP2 SWAP1 POP DUP1 PUSH2 0x5E0 JUMP JUMPDEST POP POP POP PUSH1 0x0 DUP7 DUP2 MSTORE PUSH1 0x20 DUP2 SWAP1 MSTORE PUSH1 0x40 SWAP1 KECCAK256 PUSH1 0x4 DUP2 ADD SLOAD PUSH1 0x5 DUP3 ADD SLOAD PUSH1 0x2 DUP4 ADD SLOAD DUP4 SLOAD PUSH1 0x3 DUP6 ADD SLOAD PUSH1 0x1 SWAP1 SWAP6 ADD SLOAD PUSH1 0x1 PUSH1 0x1 PUSH1 0xA0 SHL SUB SWAP5 DUP6 AND SWAP11 POP SWAP4 DUP4 AND SWAP9 POP SWAP1 SWAP7 POP SWAP5 POP SWAP2 SWAP3 POP PUSH1 0xFF PUSH1 0x1 PUSH1 0xA0 SHL DUP4 DIV DUP2 AND SWAP3 PUSH1 0x1 PUSH1 0xA8 SHL SWAP1 DIV AND SWAP1 JUMPDEST SWAP2 SWAP4 SWAP6 SWAP8 POP SWAP2 SWAP4 SWAP6 SWAP8 JUMP JUMPDEST PUSH1 0x0 DUP2 MLOAD DUP4 MLOAD EQ PUSH2 0x60F JUMPI PUSH1 0x40 MLOAD PUSH4 0x2DA91F41 PUSH1 0xE0 SHL DUP2 MSTORE PUSH1 0x4 ADD PUSH1 0x40 MLOAD DUP1 SWAP2 SUB SWAP1 REVERT JUMPDEST PUSH1 0x0 JUMPDEST DUP4 MLOAD DUP2 LT ISZERO PUSH2 0x66C JUMPI PUSH2 0x63D DUP5 DUP3 DUP2 MLOAD DUP2 LT PUSH2 0x630 JUMPI PUSH2 0x630 PUSH2 0xEB1 JUMP JUMPDEST PUSH1 0x20 MUL PUSH1 0x20 ADD ADD MLOAD PUSH2 0xBB2 JUMP JUMPDEST PUSH2 0x65A JUMPI PUSH1 0x40 MLOAD PUSH4 0xADA0853D PUSH1 0xE0 SHL DUP2 MSTORE PUSH1 0x4 ADD PUSH1 0x40 MLOAD DUP1 SWAP2 SUB SWAP1 REVERT JUMPDEST DUP1 PUSH2 0x664 DUP2 PUSH2 0xEDD JUMP JUMPDEST SWAP2 POP POP PUSH2 0x612 JUMP JUMPDEST POP PUSH1 0x0 DUP1 JUMPDEST DUP5 MLOAD DUP2 LT ISZERO PUSH2 0x8CC JUMPI PUSH1 0x0 DUP1 PUSH1 0x0 DUP8 DUP5 DUP2 MLOAD DUP2 LT PUSH2 0x691 JUMPI PUSH2 0x691 PUSH2 0xEB1 JUMP JUMPDEST PUSH1 0x20 MUL PUSH1 0x20 ADD ADD MLOAD DUP2 MSTORE PUSH1 0x20 ADD SWAP1 DUP2 MSTORE PUSH1 0x20 ADD PUSH1 0x0 KECCAK256 SWAP1 POP PUSH1 0x0 PUSH1 0x2 DUP7 DUP5 DUP2 MLOAD DUP2 LT PUSH2 0x6BF JUMPI PUSH2 0x6BF PUSH2 0xEB1 JUMP JUMPDEST PUSH1 0x20 MUL PUSH1 0x20 ADD ADD MLOAD PUSH1 0x40 MLOAD PUSH1 0x20 ADD PUSH2 0x6D9 SWAP2 DUP2 MSTORE PUSH1 0x20 ADD SWAP1 JUMP JUMPDEST PUSH1 0x40 DUP1 MLOAD PUSH1 0x1F NOT DUP2 DUP5 SUB ADD DUP2 MSTORE SWAP1 DUP3 SWAP1 MSTORE PUSH2 0x6F3 SWAP2 PUSH2 0xE2D JUMP JUMPDEST PUSH1 0x20 PUSH1 0x40 MLOAD DUP1 DUP4 SUB DUP2 DUP6 GAS STATICCALL ISZERO DUP1 ISZERO PUSH2 0x710 JUMPI RETURNDATASIZE PUSH1 0x0 DUP1 RETURNDATACOPY RETURNDATASIZE PUSH1 0x0 REVERT JUMPDEST POP POP POP PUSH1 0x40 MLOAD RETURNDATASIZE PUSH1 0x1F NOT PUSH1 0x1F DUP3 ADD AND DUP3 ADD DUP1 PUSH1 0x40 MSTORE POP DUP2 ADD SWAP1 PUSH2 0x733 SWAP2 SWAP1 PUSH2 0xE49 JUMP JUMPDEST SWAP1 POP PUSH1 0x2 DUP2 PUSH1 0x40 MLOAD PUSH1 0x20 ADD PUSH2 0x74A SWAP2 DUP2 MSTORE PUSH1 0x20 ADD SWAP1 JUMP JUMPDEST PUSH1 0x40 DUP1 MLOAD PUSH1 0x1F NOT DUP2 DUP5 SUB ADD DUP2 MSTORE SWAP1 DUP3 SWAP1 MSTORE PUSH2 0x764 SWAP2 PUSH2 0xE2D JUMP JUMPDEST PUSH1 0x20 PUSH1 0x40 MLOAD DUP1 DUP4 SUB DUP2 DUP6 GAS STATICCALL ISZERO DUP1 ISZERO PUSH2 0x781 JUMPI RETURNDATASIZE PUSH1 0x0 DUP1 RETURNDATACOPY RETURNDATASIZE PUSH1 0x0 REVERT JUMPDEST POP POP POP PUSH1 0x40 MLOAD RETURNDATASIZE PUSH1 0x1F NOT PUSH1 0x1F DUP3 ADD AND DUP3 ADD DUP1 PUSH1 0x40 MSTORE POP DUP2 ADD SWAP1 PUSH2 0x7A4 SWAP2 SWAP1 PUSH2 0xE49 JUMP JUMPDEST DUP3 SLOAD EQ PUSH2 0x7C4 JUMPI PUSH1 0x40 MLOAD PUSH4 0xE73BCB35 PUSH1 0xE0 SHL DUP2 MSTORE PUSH1 0x4 ADD PUSH1 0x40 MLOAD DUP1 SWAP2 SUB SWAP1 REVERT JUMPDEST PUSH1 0x5 DUP3 ADD SLOAD PUSH1 0x1 PUSH1 0x1 PUSH1 0xA0 SHL SUB AND CALLER EQ PUSH2 0x7F1 JUMPI PUSH1 0x40 MLOAD PUSH4 0x5A06399F PUSH1 0xE1 SHL DUP2 MSTORE PUSH1 0x4 ADD PUSH1 0x40 MLOAD DUP1 SWAP2 SUB SWAP1 REVERT JUMPDEST PUSH1 0x5 DUP3 ADD SLOAD PUSH1 0x1 PUSH1 0xA8 SHL SWAP1 DIV PUSH1 0xFF AND ISZERO PUSH2 0x81E JUMPI PUSH1 0x40 MLOAD PUSH4 0x542F378D PUSH1 0xE1 SHL DUP2 MSTORE PUSH1 0x4 ADD PUSH1 0x40 MLOAD DUP1 SWAP2 SUB SWAP1 REVERT JUMPDEST PUSH1 0x5 DUP3 ADD SLOAD PUSH1 0x1 PUSH1 0xA0 SHL SWAP1 DIV PUSH1 0xFF AND ISZERO PUSH2 0x84B JUMPI PUSH1 0x40 MLOAD PUSH4 0x6D3830F PUSH1 0xE2 SHL DUP2 MSTORE PUSH1 0x4 ADD PUSH1 0x40 MLOAD DUP1 SWAP2 SUB SWAP1 REVERT JUMPDEST TIMESTAMP DUP3 PUSH1 0x3 ADD SLOAD GT PUSH2 0x86F JUMPI PUSH1 0x40 MLOAD PUSH4 0x3DD82809 PUSH1 0xE2 SHL DUP2 MSTORE PUSH1 0x4 ADD PUSH1 0x40 MLOAD DUP1 SWAP2 SUB SWAP1 REVERT JUMPDEST DUP6 DUP4 DUP2 MLOAD DUP2 LT PUSH2 0x881 JUMPI PUSH2 0x881 PUSH2 0xEB1 JUMP JUMPDEST PUSH1 0x20 SWAP1 DUP2 MUL SWAP2 SWAP1 SWAP2 ADD ADD MLOAD PUSH1 0x1 DUP4 ADD SSTORE PUSH1 0x5 DUP3 ADD DUP1 SLOAD PUSH1 0xFF PUSH1 0xA0 SHL NOT AND PUSH1 0x1 PUSH1 0xA0 SHL OR SWAP1 SSTORE PUSH1 0x2 DUP3 ADD SLOAD PUSH2 0x8B5 SWAP1 DUP6 PUSH2 0xEF6 JUMP JUMPDEST SWAP4 POP POP POP DUP1 DUP1 PUSH2 0x8C4 SWAP1 PUSH2 0xEDD JUMP JUMPDEST SWAP2 POP POP PUSH2 0x671 JUMP JUMPDEST POP PUSH1 0x40 MLOAD CALLER SWAP1 DUP3 ISZERO PUSH2 0x8FC MUL SWAP1 DUP4 SWAP1 PUSH1 0x0 DUP2 DUP2 DUP2 DUP6 DUP9 DUP9 CALL SWAP4 POP POP POP POP ISZERO DUP1 ISZERO PUSH2 0x8FA JUMPI RETURNDATASIZE PUSH1 0x0 DUP1 RETURNDATACOPY RETURNDATASIZE PUSH1 0x0 REVERT JUMPDEST POP DUP4 PUSH1 0x40 MLOAD PUSH2 0x909 SWAP2 SWAP1 PUSH2 0xF09 JUMP JUMPDEST PUSH1 0x40 MLOAD SWAP1 DUP2 SWAP1 SUB DUP2 KECCAK256 SWAP1 PUSH32 0xCAFEF545E79F2768DC1F93EE4CCBAD744D76CF959784A6D88BB06AF657F2F3CC SWAP1 PUSH1 0x0 SWAP1 LOG2 PUSH1 0x1 SWAP2 POP POP JUMPDEST SWAP3 SWAP2 POP POP JUMP JUMPDEST PUSH1 0x0 DUP3 PUSH2 0x951 DUP2 PUSH2 0xBB2 JUMP JUMPDEST PUSH2 0x96E JUMPI PUSH1 0x40 MLOAD PUSH4 0xADA0853D PUSH1 0xE0 SHL DUP2 MSTORE PUSH1 0x4 ADD PUSH1 0x40 MLOAD DUP1 SWAP2 SUB SWAP1 REVERT JUMPDEST PUSH1 0x0 DUP5 DUP2 MSTORE PUSH1 0x20 DUP2 DUP2 MSTORE PUSH1 0x40 DUP1 DUP4 KECCAK256 DUP2 MLOAD SWAP3 DUP4 ADD DUP8 SWAP1 MSTORE SWAP3 SWAP2 PUSH1 0x2 SWAP2 ADD PUSH1 0x40 DUP1 MLOAD PUSH1 0x1F NOT DUP2 DUP5 SUB ADD DUP2 MSTORE SWAP1 DUP3 SWAP1 MSTORE PUSH2 0x9A5 SWAP2 PUSH2 0xE2D JUMP JUMPDEST PUSH1 0x20 PUSH1 0x40 MLOAD DUP1 DUP4 SUB DUP2 DUP6 GAS STATICCALL ISZERO DUP1 ISZERO PUSH2 0x9C2 JUMPI RETURNDATASIZE PUSH1 0x0 DUP1 RETURNDATACOPY RETURNDATASIZE PUSH1 0x0 REVERT JUMPDEST POP POP POP PUSH1 0x40 MLOAD RETURNDATASIZE PUSH1 0x1F NOT PUSH1 0x1F DUP3 ADD AND DUP3 ADD DUP1 PUSH1 0x40 MSTORE POP DUP2 ADD SWAP1 PUSH2 0x9E5 SWAP2 SWAP1 PUSH2 0xE49 JUMP JUMPDEST SWAP1 POP PUSH1 0x2 DUP2 PUSH1 0x40 MLOAD PUSH1 0x20 ADD PUSH2 0x9FC SWAP2 DUP2 MSTORE PUSH1 0x20 ADD SWAP1 JUMP JUMPDEST PUSH1 0x40 DUP1 MLOAD PUSH1 0x1F NOT DUP2 DUP5 SUB ADD DUP2 MSTORE SWAP1 DUP3 SWAP1 MSTORE PUSH2 0xA16 SWAP2 PUSH2 0xE2D JUMP JUMPDEST PUSH1 0x20 PUSH1 0x40 MLOAD DUP1 DUP4 SUB DUP2 DUP6 GAS STATICCALL ISZERO DUP1 ISZERO PUSH2 0xA33 JUMPI RETURNDATASIZE PUSH1 0x0 DUP1 RETURNDATACOPY RETURNDATASIZE PUSH1 0x0 REVERT JUMPDEST POP POP POP PUSH1 0x40 MLOAD RETURNDATASIZE PUSH1 0x1F NOT PUSH1 0x1F DUP3 ADD AND DUP3 ADD DUP1 PUSH1 0x40 MSTORE POP DUP2 ADD SWAP1 PUSH2 0xA56 SWAP2 SWAP1 PUSH2 0xE49 JUMP JUMPDEST DUP3 SLOAD EQ PUSH2 0xA76 JUMPI PUSH1 0x40 MLOAD PUSH4 0xE73BCB35 PUSH1 0xE0 SHL DUP2 MSTORE PUSH1 0x4 ADD PUSH1 0x40 MLOAD DUP1 SWAP2 SUB SWAP1 REVERT JUMPDEST PUSH1 0x5 DUP3 ADD SLOAD PUSH1 0x1 PUSH1 0x1 PUSH1 0xA0 SHL SUB AND CALLER EQ PUSH2 0xAA3 JUMPI PUSH1 0x40 MLOAD PUSH4 0x5A06399F PUSH1 0xE1 SHL DUP2 MSTORE PUSH1 0x4 ADD PUSH1 0x40 MLOAD DUP1 SWAP2 SUB SWAP1 REVERT JUMPDEST PUSH1 0x5 DUP3 ADD SLOAD PUSH1 0x1 PUSH1 0xA8 SHL SWAP1 DIV PUSH1 0xFF AND ISZERO PUSH2 0xAD0 JUMPI PUSH1 0x40 MLOAD PUSH4 0x542F378D PUSH1 0xE1 SHL DUP2 MSTORE PUSH1 0x4 ADD PUSH1 0x40 MLOAD DUP1 SWAP2 SUB SWAP1 REVERT JUMPDEST PUSH1 0x5 DUP3 ADD SLOAD PUSH1 0x1 PUSH1 0xA0 SHL SWAP1 DIV PUSH1 0xFF AND ISZERO PUSH2 0xAFD JUMPI PUSH1 0x40 MLOAD PUSH4 0x6D3830F PUSH1 0xE2 SHL DUP2 MSTORE PUSH1 0x4 ADD PUSH1 0x40 MLOAD DUP1 SWAP2 SUB SWAP1 REVERT JUMPDEST TIMESTAMP DUP3 PUSH1 0x3 ADD SLOAD GT PUSH2 0xB21 JUMPI PUSH1 0x40 MLOAD PUSH4 0x3DD82809 PUSH1 0xE2 SHL DUP2 MSTORE PUSH1 0x4 ADD PUSH1 0x40 MLOAD DUP1 SWAP2 SUB SWAP1 REVERT JUMPDEST PUSH1 0x1 DUP3 ADD DUP6 SWAP1 SSTORE PUSH1 0x5 DUP3 ADD DUP1 SLOAD PUSH1 0xFF PUSH1 0xA0 SHL NOT DUP2 AND PUSH1 0x1 PUSH1 0xA0 SHL OR SWAP1 SWAP2 SSTORE PUSH1 0x2 DUP4 ADD SLOAD PUSH1 0x40 MLOAD PUSH1 0x1 PUSH1 0x1 PUSH1 0xA0 SHL SUB SWAP1 SWAP3 AND SWAP2 DUP2 ISZERO PUSH2 0x8FC MUL SWAP2 SWAP1 PUSH1 0x0 DUP2 DUP2 DUP2 DUP6 DUP9 DUP9 CALL SWAP4 POP POP POP POP ISZERO DUP1 ISZERO PUSH2 0xB7A JUMPI RETURNDATASIZE PUSH1 0x0 DUP1 RETURNDATACOPY RETURNDATASIZE PUSH1 0x0 REVERT JUMPDEST POP PUSH1 0x40 MLOAD DUP7 SWAP1 PUSH32 0x9C99E224F6DE9465364296F787B16047E11CF4A367C73FC3E979DDA64D3E668C SWAP1 PUSH1 0x0 SWAP1 LOG2 POP PUSH1 0x1 SWAP6 SWAP5 POP POP POP POP POP JUMP JUMPDEST PUSH1 0x0 SWAP1 DUP2 MSTORE PUSH1 0x20 DUP2 SWAP1 MSTORE PUSH1 0x40 SWAP1 KECCAK256 PUSH1 0x4 ADD SLOAD PUSH1 0x1 PUSH1 0x1 PUSH1 0xA0 SHL SUB AND ISZERO ISZERO SWAP1 JUMP JUMPDEST PUSH4 0x4E487B71 PUSH1 0xE0 SHL PUSH1 0x0 MSTORE PUSH1 0x41 PUSH1 0x4 MSTORE PUSH1 0x24 PUSH1 0x0 REVERT JUMPDEST PUSH1 0x40 MLOAD PUSH1 0x1F DUP3 ADD PUSH1 0x1F NOT AND DUP2 ADD PUSH8 0xFFFFFFFFFFFFFFFF DUP2 GT DUP3 DUP3 LT OR ISZERO PUSH2 0xC11 JUMPI PUSH2 0xC11 PUSH2 0xBD2 JUMP JUMPDEST PUSH1 0x40 MSTORE SWAP2 SWAP1 POP JUMP JUMPDEST PUSH1 0x0 DUP1 PUSH1 0x0 DUP1 PUSH1 0x0 PUSH1 0xA0 DUP7 DUP9 SUB SLT ISZERO PUSH2 0xC31 JUMPI PUSH1 0x0 DUP1 REVERT JUMPDEST DUP6 CALLDATALOAD PUSH1 0x1 PUSH1 0x1 PUSH1 0xA0 SHL SUB DUP2 AND DUP2 EQ PUSH2 0xC48 JUMPI PUSH1 0x0 DUP1 REVERT JUMPDEST SWAP5 POP PUSH1 0x20 DUP7 DUP2 ADD CALLDATALOAD SWAP5 POP PUSH1 0x40 DUP8 ADD CALLDATALOAD SWAP4 POP PUSH1 0x60 DUP8 ADD CALLDATALOAD SWAP3 POP PUSH1 0x80 DUP8 ADD CALLDATALOAD PUSH8 0xFFFFFFFFFFFFFFFF DUP1 DUP3 GT ISZERO PUSH2 0xC7B JUMPI PUSH1 0x0 DUP1 REVERT JUMPDEST DUP2 DUP10 ADD SWAP2 POP DUP10 PUSH1 0x1F DUP4 ADD SLT PUSH2 0xC8F JUMPI PUSH1 0x0 DUP1 REVERT JUMPDEST DUP2 CALLDATALOAD DUP2 DUP2 GT ISZERO PUSH2 0xCA1 JUMPI PUSH2 0xCA1 PUSH2 0xBD2 JUMP JUMPDEST PUSH2 0xCB3 PUSH1 0x1F DUP3 ADD PUSH1 0x1F NOT AND DUP6 ADD PUSH2 0xBE8 JUMP JUMPDEST SWAP2 POP DUP1 DUP3 MSTORE DUP11 DUP5 DUP3 DUP6 ADD ADD GT ISZERO PUSH2 0xCC9 JUMPI PUSH1 0x0 DUP1 REVERT JUMPDEST DUP1 DUP5 DUP5 ADD DUP6 DUP5 ADD CALLDATACOPY PUSH1 0x0 DUP5 DUP3 DUP5 ADD ADD MSTORE POP DUP1 SWAP4 POP POP POP POP SWAP3 SWAP6 POP SWAP3 SWAP6 SWAP1 SWAP4 POP JUMP JUMPDEST PUSH1 0x0 PUSH1 0x20 DUP3 DUP5 SUB SLT ISZERO PUSH2 0xCFC JUMPI PUSH1 0x0 DUP1 REVERT JUMPDEST POP CALLDATALOAD SWAP2 SWAP1 POP JUMP JUMPDEST PUSH1 0x0 DUP3 PUSH1 0x1F DUP4 ADD SLT PUSH2 0xD14 JUMPI PUSH1 0x0 DUP1 REVERT JUMPDEST DUP2 CALLDATALOAD PUSH1 0x20 PUSH8 0xFFFFFFFFFFFFFFFF DUP3 GT ISZERO PUSH2 0xD30 JUMPI PUSH2 0xD30 PUSH2 0xBD2 JUMP JUMPDEST DUP2 PUSH1 0x5 SHL PUSH2 0xD3F DUP3 DUP3 ADD PUSH2 0xBE8 JUMP JUMPDEST SWAP3 DUP4 MSTORE DUP5 DUP2 ADD DUP3 ADD SWAP3 DUP3 DUP2 ADD SWAP1 DUP8 DUP6 GT ISZERO PUSH2 0xD59 JUMPI PUSH1 0x0 DUP1 REVERT JUMPDEST DUP4 DUP8 ADD SWAP3 POP JUMPDEST DUP5 DUP4 LT ISZERO PUSH2 0xD78 JUMPI DUP3 CALLDATALOAD DUP3 MSTORE SWAP2 DUP4 ADD SWAP2 SWAP1 DUP4 ADD SWAP1 PUSH2 0xD5F JUMP JUMPDEST SWAP8 SWAP7 POP POP POP POP POP POP POP JUMP JUMPDEST PUSH1 0x0 DUP1 PUSH1 0x40 DUP4 DUP6 SUB SLT ISZERO PUSH2 0xD96 JUMPI PUSH1 0x0 DUP1 REVERT JUMPDEST DUP3 CALLDATALOAD PUSH8 0xFFFFFFFFFFFFFFFF DUP1 DUP3 GT ISZERO PUSH2 0xDAE JUMPI PUSH1 0x0 DUP1 REVERT JUMPDEST PUSH2 0xDBA DUP7 DUP4 DUP8 ADD PUSH2 0xD03 JUMP JUMPDEST SWAP4 POP PUSH1 0x20 DUP6 ADD CALLDATALOAD SWAP2 POP DUP1 DUP3 GT ISZERO PUSH2 0xDD0 JUMPI PUSH1 0x0 DUP1 REVERT JUMPDEST POP PUSH2 0xDDD DUP6 DUP3 DUP7 ADD PUSH2 0xD03 JUMP JUMPDEST SWAP2 POP POP SWAP3 POP SWAP3 SWAP1 POP JUMP JUMPDEST PUSH1 0x0 DUP1 PUSH1 0x40 DUP4 DUP6 SUB SLT ISZERO PUSH2 0xDFA JUMPI PUSH1 0x0 DUP1 REVERT JUMPDEST POP POP DUP1 CALLDATALOAD SWAP3 PUSH1 0x20 SWAP1 SWAP2 ADD CALLDATALOAD SWAP2 POP JUMP JUMPDEST PUSH1 0x0 JUMPDEST DUP4 DUP2 LT ISZERO PUSH2 0xE24 JUMPI DUP2 DUP2 ADD MLOAD DUP4 DUP3 ADD MSTORE PUSH1 0x20 ADD PUSH2 0xE0C JUMP JUMPDEST POP POP PUSH1 0x0 SWAP2 ADD MSTORE JUMP JUMPDEST PUSH1 0x0 DUP3 MLOAD PUSH2 0xE3F DUP2 DUP5 PUSH1 0x20 DUP8 ADD PUSH2 0xE09 JUMP JUMPDEST SWAP2 SWAP1 SWAP2 ADD SWAP3 SWAP2 POP POP JUMP JUMPDEST PUSH1 0x0 PUSH1 0x20 DUP3 DUP5 SUB SLT ISZERO PUSH2 0xE5B JUMPI PUSH1 0x0 DUP1 REVERT JUMPDEST POP MLOAD SWAP2 SWAP1 POP JUMP JUMPDEST DUP6 DUP2 MSTORE DUP5 PUSH1 0x20 DUP3 ADD MSTORE DUP4 PUSH1 0x40 DUP3 ADD MSTORE DUP3 PUSH1 0x60 DUP3 ADD MSTORE PUSH1 0xA0 PUSH1 0x80 DUP3 ADD MSTORE PUSH1 0x0 DUP3 MLOAD DUP1 PUSH1 0xA0 DUP5 ADD MSTORE PUSH2 0xE99 DUP2 PUSH1 0xC0 DUP6 ADD PUSH1 0x20 DUP8 ADD PUSH2 0xE09 JUMP JUMPDEST PUSH1 0x1F ADD PUSH1 0x1F NOT AND SWAP2 SWAP1 SWAP2 ADD PUSH1 0xC0 ADD SWAP7 SWAP6 POP POP POP POP POP POP JUMP JUMPDEST PUSH4 0x4E487B71 PUSH1 0xE0 SHL PUSH1 0x0 MSTORE PUSH1 0x32 PUSH1 0x4 MSTORE PUSH1 0x24 PUSH1 0x0 REVERT JUMPDEST PUSH4 0x4E487B71 PUSH1 0xE0 SHL PUSH1 0x0 MSTORE PUSH1 0x11 PUSH1 0x4 MSTORE PUSH1 0x24 PUSH1 0x0 REVERT JUMPDEST PUSH1 0x0 PUSH1 0x1 DUP3 ADD PUSH2 0xEEF JUMPI PUSH2 0xEEF PUSH2 0xEC7 JUMP JUMPDEST POP PUSH1 0x1 ADD SWAP1 JUMP JUMPDEST DUP1 DUP3 ADD DUP1 DUP3 GT ISZERO PUSH2 0x93F JUMPI PUSH2 0x93F PUSH2 0xEC7 JUMP JUMPDEST DUP2 MLOAD PUSH1 0x0 SWAP1 DUP3 SWAP1 PUSH1 0x20 DUP1 DUP7 ADD DUP5 JUMPDEST DUP4 DUP2 LT ISZERO PUSH2 0xF33 JUMPI DUP2 MLOAD DUP6 MSTORE SWAP4 DUP3 ADD SWAP4 SWAP1 DUP3 ADD SWAP1 PUSH1 0x1 ADD PUSH2 0xF17 JUMP JUMPDEST POP SWAP3 SWAP7 SWAP6 POP POP POP POP POP POP JUMP INVALID LOG2 PUSH5 0x6970667358 0x22 SLT KECCAK256 0x4C PUSH30 0x192D5D3A3CF52F8A670264EE268C622E4C65D287C2BA3E0CF0F6BBBD374C PUSH5 0x736F6C6343 STOP ADDMOD EQ STOP CALLER "},"methodIdentifiers":{"batchRedeem(bytes32[],bytes32[])":"8e08c081","createHTLC(address,bytes32,uint256,uint256,string)":"5ae314ec","getHTLCDetails(bytes32)":"8928777e","redeem(bytes32,bytes32)":"b31597ad","refund(bytes32)":"7249fbb6"}}}}}