{
  "_format": "hh-sol-artifact-1",
  "contractName": "HashedTimelockEther",
  "sourceName": "contracts/HashedTimelockEther.sol",
  "abi": [
    {
      "inputs": [],
      "name": "AlreadyRedeemed",
      "type": "error"
    },
    {
      "inputs": [],
      "name": "AlreadyRefunded",
      "type": "error"
    },
    {
      "inputs": [],
      "name": "ContractAlreadyExist",
      "type": "error"
    },
    {
      "inputs": [],
      "name": "ContractNotExist",
      "type": "error"
    },
    {
      "inputs": [],
      "name": "FundsNotSent",
      "type": "error"
    },
    {
      "inputs": [],
      "name": "HashlockNotMatch",
      "type": "error"
    },
    {
      "inputs": [],
      "name": "NotFutureTimelock",
      "type": "error"
    },
    {
      "inputs": [],
      "name": "NotPassedTimelock",
      "type": "error"
    },
    {
      "inputs": [],
      "name": "NotReceiver",
      "type": "error"
    },
    {
      "inputs": [],
      "name": "NotSender",
      "type": "error"
    },
    {
      "anonymous": false,
      "inputs": [
        {
          "indexed": true,
          "internalType": "bytes32",
          "name": "contractId",
          "type": "bytes32"
        },
        {
          "indexed": true,
          "internalType": "address",
          "name": "sender",
          "type": "address"
        },
        {
          "indexed": true,
          "internalType": "address",
          "name": "receiver",
          "type": "address"
        },
        {
          "indexed": false,
          "internalType": "uint256",
          "name": "amount",
          "type": "uint256"
        },
        {
          "indexed": false,
          "internalType": "bytes32",
          "name": "hashlock",
          "type": "bytes32"
        },
        {
          "indexed": false,
          "internalType": "uint256",
          "name": "timelock",
          "type": "uint256"
        }
      ],
      "name": "HTLCEtherCreated",
      "type": "event"
    },
    {
      "anonymous": false,
      "inputs": [
        {
          "indexed": true,
          "internalType": "bytes32",
          "name": "contractId",
          "type": "bytes32"
        }
      ],
      "name": "HTLCEtherRedeemed",
      "type": "event"
    },
    {
      "anonymous": false,
      "inputs": [
        {
          "indexed": true,
          "internalType": "bytes32",
          "name": "contractId",
          "type": "bytes32"
        }
      ],
      "name": "HTLCEtherRefunded",
      "type": "event"
    },
    {
      "inputs": [
        {
          "internalType": "address payable",
          "name": "_receiver",
          "type": "address"
        },
        {
          "internalType": "bytes32",
          "name": "_hashlock",
          "type": "bytes32"
        },
        {
          "internalType": "uint256",
          "name": "_timelock",
          "type": "uint256"
        }
      ],
      "name": "createHTLC",
      "outputs": [
        {
          "internalType": "bytes32",
          "name": "contractId",
          "type": "bytes32"
        }
      ],
      "stateMutability": "payable",
      "type": "function"
    },
    {
      "inputs": [
        {
          "internalType": "bytes32",
          "name": "_contractId",
          "type": "bytes32"
        }
      ],
      "name": "getHTLCDetails",
      "outputs": [
        {
          "internalType": "address",
          "name": "sender",
          "type": "address"
        },
        {
          "internalType": "address",
          "name": "receiver",
          "type": "address"
        },
        {
          "internalType": "uint256",
          "name": "amount",
          "type": "uint256"
        },
        {
          "internalType": "bytes32",
          "name": "hashlock",
          "type": "bytes32"
        },
        {
          "internalType": "uint256",
          "name": "timelock",
          "type": "uint256"
        },
        {
          "internalType": "bool",
          "name": "redeemed",
          "type": "bool"
        },
        {
          "internalType": "bool",
          "name": "refunded",
          "type": "bool"
        },
        {
          "internalType": "bytes32",
          "name": "secret",
          "type": "bytes32"
        }
      ],
      "stateMutability": "view",
      "type": "function"
    },
    {
      "inputs": [
        {
          "internalType": "bytes32",
          "name": "_contractId",
          "type": "bytes32"
        },
        {
          "internalType": "bytes32",
          "name": "_secret",
          "type": "bytes32"
        }
      ],
      "name": "redeem",
      "outputs": [
        {
          "internalType": "bool",
          "name": "",
          "type": "bool"
        }
      ],
      "stateMutability": "nonpayable",
      "type": "function"
    },
    {
      "inputs": [
        {
          "internalType": "bytes32",
          "name": "_contractId",
          "type": "bytes32"
        }
      ],
      "name": "refund",
      "outputs": [
        {
          "internalType": "bool",
          "name": "",
          "type": "bool"
        }
      ],
      "stateMutability": "nonpayable",
      "type": "function"
    }
  ],
  "bytecode": "0x608060405234801561001057600080fd5b50610958806100206000396000f3fe60806040526004361061003f5760003560e01c80637249fbb6146100445780638928777e14610079578063b31597ad146100e3578063c558239e14610103575b600080fd5b34801561005057600080fd5b5061006461005f36600461085e565b610124565b60405190151581526020015b60405180910390f35b34801561008557600080fd5b5061009961009436600461085e565b61028d565b604080516001600160a01b03998a1681529890971660208901529587019490945260608601929092526080850152151560a0840152151560c083015260e082015261010001610070565b3480156100ef57600080fd5b506100646100fe366004610877565b610340565b610116610111366004610899565b6105b3565b604051908152602001610070565b60008181526020819052604081205482906001600160a01b031661015b5760405163ada0853d60e01b815260040160405180910390fd5b600083815260208190526040902080546001600160a01b031633146101935760405163b2c3aa6b60e01b815260040160405180910390fd5b6005810154610100900460ff16156101be5760405163542f378d60e11b815260040160405180910390fd5b600581015460ff16156101e4576040516306d3830f60e21b815260040160405180910390fd5b42816004015411156102095760405163b3f711f760e01b815260040160405180910390fd5b60058101805461ff001916610100179055805460028201546040516001600160a01b039092169181156108fc0291906000818181858888f19350505050158015610257573d6000803e3d6000fd5b5060405184907fa45e0944c51c37a3fc70f1153c0374f32ed9c9d26b16b48c25271bf340efa84f90600090a25060019392505050565b6000806000806000806000806102ba896000908152602081905260409020546001600160a01b0316151590565b6102db57506000965086955085945084935083925082915081905080610335565b50505060008681526020819052604090208054600182015460028301546003840154600485015460058601546006909601546001600160a01b039586169b509490931698509096509450925060ff80831692610100900416905b919395975091939597565b60008281526020819052604081205483906001600160a01b03166103775760405163ada0853d60e01b815260040160405180910390fd5b600084815260208181526040808320815192830187905292916002910160408051601f19818403018152908290526103ae916108da565b602060405180830381855afa1580156103cb573d6000803e3d6000fd5b5050506040513d601f19601f820116820180604052508101906103ee9190610909565b905060028160405160200161040591815260200190565b60408051601f198184030181529082905261041f916108da565b602060405180830381855afa15801561043c573d6000803e3d6000fd5b5050506040513d601f19601f8201168201806040525081019061045f9190610909565b8260030154146104825760405163e73bcb3560e01b815260040160405180910390fd5b60018201546001600160a01b031633146104af57604051635a06399f60e11b815260040160405180910390fd5b6005820154610100900460ff16156104da5760405163542f378d60e11b815260040160405180910390fd5b600582015460ff1615610500576040516306d3830f60e21b815260040160405180910390fd5b4282600401541161052457604051633dd8280960e21b815260040160405180910390fd5b6006820185905560058201805460ff1916600190811790915582015460028301546040516001600160a01b039092169181156108fc0291906000818181858888f1935050505015801561057b573d6000803e3d6000fd5b5060405186907f9c99e224f6de9465364296f787b16047e11cf4a367c73fc3e979dda64d3e668c90600090a250600195945050505050565b6000346000036105d657604051636f8ab38d60e11b815260040160405180910390fd5b4282116105f657604051633dd8280960e21b815260040160405180910390fd5b6040516bffffffffffffffffffffffff1933606090811b8216602084015286901b166034820152346048820152606881018490526088810183905260029060a80160408051601f1981840301815290829052610651916108da565b602060405180830381855afa15801561066e573d6000803e3d6000fd5b5050506040513d601f19601f820116820180604052508101906106919190610909565b6000818152602081905260409020549091506001600160a01b0316156106ca5760405163bb0c4cf160e01b815260040160405180910390fd5b604051806101000160405280336001600160a01b03168152602001856001600160a01b031681526020013481526020018481526020018381526020016000151581526020016000151581526020016000801b81525060008083815260200190815260200160002060008201518160000160006101000a8154816001600160a01b0302191690836001600160a01b0316021790555060208201518160010160006101000a8154816001600160a01b0302191690836001600160a01b0316021790555060408201518160020155606082015181600301556080820151816004015560a08201518160050160006101000a81548160ff02191690831515021790555060c08201518160050160016101000a81548160ff02191690831515021790555060e08201518160060155905050836001600160a01b0316336001600160a01b0316827fc62fa6e509b1d78637e8ea917b1b4a7f45f5d83b59e36198782424438c75dad834878760405161084f939291909283526020830191909152604082015260600190565b60405180910390a49392505050565b60006020828403121561087057600080fd5b5035919050565b6000806040838503121561088a57600080fd5b50508035926020909101359150565b6000806000606084860312156108ae57600080fd5b83356001600160a01b03811681146108c557600080fd5b95602085013595506040909401359392505050565b6000825160005b818110156108fb57602081860181015185830152016108e1565b506000920191825250919050565b60006020828403121561091b57600080fd5b505191905056fea2646970667358221220f7dcb92e831c24ac5ced36d705b0386b4c7e368f5393f050bb1f78f67acd26d764736f6c63430008140033",
  "linkReferences": {},
  "deployedLinkReferences": {}
}