{
  "_format": "hh-sol-artifact-1",
  "contractName": "HashedTimelockERC20",
  "sourceName": "contracts/HashedTimelockERC20.sol",
  "abi": [
    {
      "inputs": [
        {
          "internalType": "address",
          "name": "target",
          "type": "address"
        }
      ],
      "name": "AddressEmptyCode",
      "type": "error"
    },
    {
      "inputs": [
        {
          "internalType": "address",
          "name": "account",
          "type": "address"
        }
      ],
      "name": "AddressInsufficientBalance",
      "type": "error"
    },
    {
      "inputs": [],
      "name": "AlreadyRedeemed",
      "type": "error"
    },
    {
      "inputs": [],
      "name": "AlreadyRefunded",
      "type": "error"
    },
    {
      "inputs": [],
      "name": "ContractAlreadyExist",
      "type": "error"
    },
    {
      "inputs": [],
      "name": "ContractNotExist",
      "type": "error"
    },
    {
      "inputs": [],
      "name": "FailedInnerCall",
      "type": "error"
    },
    {
      "inputs": [],
      "name": "HashlockNotMatch",
      "type": "error"
    },
    {
      "inputs": [],
      "name": "NotFutureTimelock",
      "type": "error"
    },
    {
      "inputs": [],
      "name": "NotPassedTimelock",
      "type": "error"
    },
    {
      "inputs": [],
      "name": "NotReceiver",
      "type": "error"
    },
    {
      "inputs": [],
      "name": "NotSender",
      "type": "error"
    },
    {
      "inputs": [
        {
          "internalType": "address",
          "name": "token",
          "type": "address"
        }
      ],
      "name": "SafeERC20FailedOperation",
      "type": "error"
    },
    {
      "anonymous": false,
      "inputs": [
        {
          "indexed": true,
          "internalType": "bytes32",
          "name": "contractId",
          "type": "bytes32"
        },
        {
          "indexed": true,
          "internalType": "address",
          "name": "sender",
          "type": "address"
        },
        {
          "indexed": true,
          "internalType": "address",
          "name": "receiver",
          "type": "address"
        },
        {
          "indexed": false,
          "internalType": "address",
          "name": "tokenContract",
          "type": "address"
        },
        {
          "indexed": false,
          "internalType": "uint256",
          "name": "amount",
          "type": "uint256"
        },
        {
          "indexed": false,
          "internalType": "bytes32",
          "name": "hashlock",
          "type": "bytes32"
        },
        {
          "indexed": false,
          "internalType": "uint256",
          "name": "timelock",
          "type": "uint256"
        }
      ],
      "name": "HTLCERC20Created",
      "type": "event"
    },
    {
      "anonymous": false,
      "inputs": [
        {
          "indexed": true,
          "internalType": "bytes32",
          "name": "contractId",
          "type": "bytes32"
        }
      ],
      "name": "HTLCERC20Redeemed",
      "type": "event"
    },
    {
      "anonymous": false,
      "inputs": [
        {
          "indexed": true,
          "internalType": "bytes32",
          "name": "contractId",
          "type": "bytes32"
        }
      ],
      "name": "HTLCERC20Refunded",
      "type": "event"
    },
    {
      "inputs": [
        {
          "internalType": "address",
          "name": "_receiver",
          "type": "address"
        },
        {
          "internalType": "bytes32",
          "name": "_hashlock",
          "type": "bytes32"
        },
        {
          "internalType": "uint256",
          "name": "_timelock",
          "type": "uint256"
        },
        {
          "internalType": "address",
          "name": "_tokenContract",
          "type": "address"
        },
        {
          "internalType": "uint256",
          "name": "_amount",
          "type": "uint256"
        }
      ],
      "name": "createHTLC",
      "outputs": [
        {
          "internalType": "bytes32",
          "name": "contractId",
          "type": "bytes32"
        }
      ],
      "stateMutability": "nonpayable",
      "type": "function"
    },
    {
      "inputs": [
        {
          "internalType": "bytes32",
          "name": "_contractId",
          "type": "bytes32"
        }
      ],
      "name": "getHTLCDetails",
      "outputs": [
        {
          "internalType": "address",
          "name": "sender",
          "type": "address"
        },
        {
          "internalType": "address",
          "name": "receiver",
          "type": "address"
        },
        {
          "internalType": "address",
          "name": "tokenContract",
          "type": "address"
        },
        {
          "internalType": "uint256",
          "name": "amount",
          "type": "uint256"
        },
        {
          "internalType": "bytes32",
          "name": "hashlock",
          "type": "bytes32"
        },
        {
          "internalType": "uint256",
          "name": "timelock",
          "type": "uint256"
        },
        {
          "internalType": "bool",
          "name": "redeemed",
          "type": "bool"
        },
        {
          "internalType": "bool",
          "name": "refunded",
          "type": "bool"
        },
        {
          "internalType": "bytes32",
          "name": "secret",
          "type": "bytes32"
        }
      ],
      "stateMutability": "view",
      "type": "function"
    },
    {
      "inputs": [
        {
          "internalType": "bytes32",
          "name": "_contractId",
          "type": "bytes32"
        },
        {
          "internalType": "bytes32",
          "name": "_secret",
          "type": "bytes32"
        }
      ],
      "name": "redeem",
      "outputs": [
        {
          "internalType": "bool",
          "name": "",
          "type": "bool"
        }
      ],
      "stateMutability": "nonpayable",
      "type": "function"
    },
    {
      "inputs": [
        {
          "internalType": "bytes32",
          "name": "_contractId",
          "type": "bytes32"
        }
      ],
      "name": "refund",
      "outputs": [
        {
          "internalType": "bool",
          "name": "",
          "type": "bool"
        }
      ],
      "stateMutability": "nonpayable",
      "type": "function"
    }
  ],
  "bytecode": "0x608060405234801561001057600080fd5b50610c0c806100206000396000f3fe608060405234801561001057600080fd5b506004361061004c5760003560e01c8063502e9fd5146100515780637249fbb6146100775780638928777e1461009a578063b31597ad14610106575b600080fd5b61006461005f366004610ae3565b610119565b6040519081526020015b60405180910390f35b61008a610085366004610b31565b610414565b604051901515815260200161006e565b6100ad6100a8366004610b31565b610563565b604080516001600160a01b039a8b168152988a1660208a015296909816958701959095526060860193909352608085019190915260a0840152151560c0830152151560e08201526101008101919091526101200161006e565b61008a610114366004610b4a565b61062c565b600042841161013b57604051633dd8280960e21b815260040160405180910390fd5b6040516bffffffffffffffffffffffff1933606090811b8216602084015288811b8216603484015285901b166048820152605c8101839052607c8101869052609c810185905260029060bc0160408051601f19818403018152908290526101a191610b6c565b602060405180830381855afa1580156101be573d6000803e3d6000fd5b5050506040513d601f19601f820116820180604052508101906101e19190610b9b565b6000818152602081905260409020549091506001600160a01b03161561021a5760405163bb0c4cf160e01b815260040160405180910390fd5b61022f6001600160a01b038416333085610885565b604051806101200160405280336001600160a01b03168152602001876001600160a01b03168152602001846001600160a01b031681526020018381526020018681526020018581526020016000151581526020016000151581526020016000801b81525060008083815260200190815260200160002060008201518160000160006101000a8154816001600160a01b0302191690836001600160a01b0316021790555060208201518160010160006101000a8154816001600160a01b0302191690836001600160a01b0316021790555060408201518160020160006101000a8154816001600160a01b0302191690836001600160a01b03160217905550606082015181600301556080820151816004015560a0820151816005015560c08201518160060160006101000a81548160ff02191690831515021790555060e08201518160060160016101000a81548160ff0219169083151502179055506101008201518160070155905050856001600160a01b0316336001600160a01b0316827f7485157685208fbbd831decdb75d88989fc519757980ad5310f26d4aef0801e486868a8a60405161040394939291906001600160a01b0394909416845260208401929092526040830152606082015260800190565b60405180910390a495945050505050565b60008181526020819052604081205482906001600160a01b031661044b5760405163ada0853d60e01b815260040160405180910390fd5b600083815260208190526040902080546001600160a01b031633146104835760405163b2c3aa6b60e01b815260040160405180910390fd5b6006810154610100900460ff16156104ae5760405163542f378d60e11b815260040160405180910390fd5b600681015460ff16156104d4576040516306d3830f60e21b815260040160405180910390fd5b42816005015411156104f95760405163b3f711f760e01b815260040160405180910390fd5b60068101805461ff00191661010017905580546003820154600283015461052e926001600160a01b03918216929116906108f2565b60405184907f25c0cb42002f469b8c07222f77709effe07c20669210af3511c8a0eaf671006690600090a25060019392505050565b60008060008060008060008060006105928a6000908152602081905260409020546001600160a01b0316151590565b15156000036105bb5750600097508796508695508594508493508392508291508190508061061f565b505050600087815260208190526040902080546001820154600283015460038401546004850154600586015460068701546007909701546001600160a01b039687169d509486169b509490921698509650945090925060ff80831692610100900416905b9193959799909294969850565b60008281526020819052604081205483906001600160a01b03166106635760405163ada0853d60e01b815260040160405180910390fd5b600084815260208181526040808320815192830187905292916002910160408051601f198184030181529082905261069a91610b6c565b602060405180830381855afa1580156106b7573d6000803e3d6000fd5b5050506040513d601f19601f820116820180604052508101906106da9190610b9b565b90506002816040516020016106f191815260200190565b60408051601f198184030181529082905261070b91610b6c565b602060405180830381855afa158015610728573d6000803e3d6000fd5b5050506040513d601f19601f8201168201806040525081019061074b9190610b9b565b82600401541461076e5760405163e73bcb3560e01b815260040160405180910390fd5b60018201546001600160a01b0316331461079b57604051635a06399f60e11b815260040160405180910390fd5b600682015460ff16156107c1576040516306d3830f60e21b815260040160405180910390fd5b6006820154610100900460ff16156107ec5760405163542f378d60e11b815260040160405180910390fd5b4282600501541161081057604051633dd8280960e21b815260040160405180910390fd5b6007820185905560068201805460ff191660019081179091558201546003830154600284015461084e926001600160a01b03918216929116906108f2565b60405186907f6fb40a468f0b7b481c795fc654df74df59b2d9518e8ee2b7b77ed8d7b985953190600090a250600195945050505050565b6040516001600160a01b0384811660248301528381166044830152606482018390526108ec9186918216906323b872dd906084015b604051602081830303815290604052915060e01b6020820180516001600160e01b038381831617835250505050610928565b50505050565b6040516001600160a01b0383811660248301526044820183905261092391859182169063a9059cbb906064016108ba565b505050565b600061093d6001600160a01b03841683610990565b905080516000141580156109625750808060200190518101906109609190610bb4565b155b1561092357604051635274afe760e01b81526001600160a01b03841660048201526024015b60405180910390fd5b606061099e838360006109a5565b9392505050565b6060814710156109ca5760405163cd78605960e01b8152306004820152602401610987565b600080856001600160a01b031684866040516109e69190610b6c565b60006040518083038185875af1925050503d8060008114610a23576040519150601f19603f3d011682016040523d82523d6000602084013e610a28565b606091505b5091509150610a38868383610a42565b9695505050505050565b606082610a5757610a5282610a9e565b61099e565b8151158015610a6e57506001600160a01b0384163b155b15610a9757604051639996b31560e01b81526001600160a01b0385166004820152602401610987565b508061099e565b805115610aae5780518082602001fd5b604051630a12f52160e11b815260040160405180910390fd5b80356001600160a01b0381168114610ade57600080fd5b919050565b600080600080600060a08688031215610afb57600080fd5b610b0486610ac7565b94506020860135935060408601359250610b2060608701610ac7565b949793965091946080013592915050565b600060208284031215610b4357600080fd5b5035919050565b60008060408385031215610b5d57600080fd5b50508035926020909101359150565b6000825160005b81811015610b8d5760208186018101518583015201610b73565b506000920191825250919050565b600060208284031215610bad57600080fd5b5051919050565b600060208284031215610bc657600080fd5b8151801515811461099e57600080fdfea2646970667358221220ad289c07987c5383edb932347d7e37ca2c94e509c5a0fc202544ba07361c4cf764736f6c63430008140033",
  "linkReferences": {},
  "deployedLinkReferences": {}
}